:020000040000FA
:10200000022066E5A1A2E69203E5F8540C24FF92B3
:1020100000D204222202386980FE220233E97FFFC7
:10202000785AE61846703D18E618467037785CE630
:1020300064011846702E7855E6FE30E727541F706D
:10204000237853E6B404087BFF7A4879D5800C786E
:1020500053E6B4060F7B007A0079517D017C0012B3
:10206000456EE4FF222253D9BF787FE4F6D8FD7590
:10207000817B023D928A308B31ED60030229A5EF0E
:10208000600764026003022992900179E0603014D5
:10209000603024F2B4070040030229929020AA7510
:1020A000F003A4C58325F0C583730228F4022992A6
:1020B00002212E02215D0223170226B10226D1023F
:1020C00023797FFB7E7D1245C990017AEFF07FFA7C
:1020D0001245C990017BEFF07FFD1245C990017C4C
:1020E000EFF07FFC1245C990017DEFF07FF91245BA
:1020F000C990017EEFF07FF81245C990017FEFF0A3
:10210000A374FFF0A3F0A3F0A3F07FF01245C990F1
:102110000184EFF0A374FFF07FF31245C9900186AC
:10212000EFF07FF21245C9900187EF0228EAE5F847
:1021300020E00312469DE4F534F535741E2535F58F
:102140008274003534F583E4F00535E53570020519
:1021500034643E453470E412373502222EE5F8200F
:10216000E00312469D90017BE024FCFF90017AE0A1
:102170006F600302223790017CE064026003022258
:1021800037F534F53574782535F58274013534F535
:1021900083E0FF743C2535F8A6070535E535700268
:1021A00005346408453470DD1246EF124530EF54B3
:1021B00003FFBF02F6E4F534F535743C2535F8E647
:1021C000FF74782535F58274013534F583EFF00519
:1021D00035E535700205346408453470DD123FF48E
:1021E000124530EF540370F8E53F24FC90017AF07B
:1021F000A37404F0A314F0A3E541F0A3E542F0A317
:10220000E543F0123735E4F534F535743C2535F8FF
:10221000E6FF74782535F58274013534F583EFF0E7
:102220000535E535700205346408453470DD9000ED
:10223000007411F002299290017AE07003022311D8
:1022400090017CE064206003022311F534F53574BD
:10225000782535F58274013534F583E0FF743C252B
:1022600035F8A6070535E5357002053464084534B0
:1022700070DD90017AE0FFD3941E4008753600753A
:10228000371E80057536008F3790017DE0F538A345
:10229000E0F539E4F534F535C3E5359537E53495A2
:1022A0003650441246EF124530EF5403FFBF02F69A
:1022B000900179E53DF0A3E53EF0A3E53FF0E54070
:1022C000123FE7E539B4F0070538E4F539800674C4
:1022D000102539F539124530EF540370F80535E50E
:1022E0003570B5053480B1E4F534F535743C2535E9
:1022F000F8E6FF74782535F58274013534F583EFFF
:10230000F00535E535700205346408453470DD802C
:1023100068123FF40228B590017AE0FD6490705C89
:10232000A3E0FF700CA3E590F09000007412F08021
:1023300048E5A054F064407029EF640870249001CF
:102340007CE0FF70054390088007EFB408035390CA
:10235000F712466690017BE05590A3F0E06408F028
:10236000801790017BE05590FFA3E06F62901246CA
:102370006690017BE05590A3F00228B5ED64F27001
:102380002590017BE0FF7006A3E5F2022658E5F2F6
:102390005FFF90017CE06F62F212466690017BE085
:1023A00055F2A302265890017AE0FD64A57022A39D
:1023B000E0FF7005A3E5A58015E5A55FFF90017C12
:1023C000E06F62A512466690017BE055A5A3022648
:1023D00058ED6480702490017BE0FF7005A3E580D8
:1023E0008015E5805FFF90017CE06F628012466699
:1023F00090017BE05580A302265890017AE0FD64AD
:10240000F17022A3E0FF7005A3E5F18015E5F15F0F
:10241000FF90017CE06F62F112466690017BE0550F
:10242000F1A3022658ED64A4702490017BE0FF70B4
:1024300005A3E5A48015E5A45FFF90017CE06F6231
:10244000A412466690017BE055A4A3022658900191
:102450007AE0FD64A07022A3E0FF7005A3E5A080F0
:1024600015E5A05FFF90017CE06F62A012466690C8
:10247000017BE055A0A3022658ED64F3702490017F
:102480007BE0FF7005A3E5F38015E5F35FFF9001A6
:102490007CE06F62F312466690017BE055F3A30285
:1024A000265890017AE0FD64A67022A3E0FF700533
:1024B000A3E5A68015E5A65FFF90017CE06F62A60C
:1024C00012466690017BE055A6A3022658ED64BC37
:1024D000702490017BE0FF7005A3E5BC8015E5BC8E
:1024E0005FFF90017CE06F62BC12466690017BE06A
:1024F00055BCA302265890017AE0FD64BE7022A369
:10250000E0FF7005A3E5BE8015E5BE5FFF90017C8E
:10251000E06F62BE12466690017BE055BEA30226C4
:1025200058ED64BD702490017BE0FF7005A3E5BD0C
:102530008015E5BD5FFF90017CE06F62BD124666CD
:1025400090017BE055BDA302265890017AE0FD641E
:10255000C47022A3E0FF7005A3E5C48015E5C45F45
:10256000FF90017CE06F62C412466690017BE055EB
:10257000C4A3022658ED64C3702490017BE0FF7071
:1025800005A3E5C38015E5C35FFF90017CE06F62A2
:10259000C312466690017BE055C3A3022658900102
:1025A0007AE0FD64C67022A3E0FF7005A3E5C68053
:1025B00015E5C65FFF90017CE06F62C6124666902B
:1025C000017BE055C6A3022658ED64C57023900137
:1025D0007BE0FF7005A3E5C58015E5C55FFF9001B1
:1025E0007CE06F62C512466690017BE055C5A38012
:1025F0006790017AE0FD64E87038A3E0FF7003A300
:10260000802CE5E85FFF90017CE06F62E81246668F
:1026100090017BE055E8A3F012466690017EE5BE8E
:10262000F0A3E5BDF053E8DF12466690017DE5E8D2
:10263000807BED64BB702390017BE0FF7005A3E518
:10264000BB8015E5BB5FFF90017CE06F62BB12466B
:102650006690017BE055BBA3805390017AE0FD6456
:10266000BA7021A3E0FF7005A3E5BA8015E5BA5F53
:10267000FF90017CE06F62BA12466690017BE055E4
:10268000BAA38029ED64D1600302299290017BE016
:10269000FF7005A3E5D18015E5D15FFF90017CE0D7
:1026A0006F62D112466690017BE055D1A3F00228FB
:1026B000EBE5C120E7061246C012466690017BE0BA
:1026C00030E005123DD7800312423E53C1EF02288D
:1026D000EB90017AE0FF70030228B7A3E06F60037C
:1026E0000228B7E5F820E00643A40D43F801E4F51D
:1026F00034F53574782535F58274013534F583E089
:10270000FF743C2535F8A6070535E535700205341C
:102710006408453470DD90017AE0FFD3941E4008D0
:1027200075360075371E80057536008F3790017E2F
:10273000E0F538A3E0F539E4F534F535C3E5359532
:1027400037E534953650411246EF124530EF5403C9
:10275000FFBF02F6E4900179F0A37404F0A3F074D3
:1027600020123FE7E539B4F0070538E4F539800673
:1027700074102539F539124530EF540370F80535DA
:10278000E53570B8053480B490017AE0FFD3941E2B
:10279000400875360075371E80057536008F37E5A1
:1027A00037AE367805C333CE33CED8F9F5378E360B
:1027B00085403A85413B854238854339E4F534F517
:1027C00035C3E5359537E5349536400302288D90BD
:1027D000017B7404F0A314F0A3E53AF0A3E53BF009
:1027E000E53530E006A37480F08005E490017FF0C9
:1027F000123AB8124530EF540370F81246EF124502
:1028000030EF5403FFBF02F690017C7402F0A3E5A1
:1028100038F0A3E539F0E53530E006A37480F080A8
:1028200005E490017FF0123CD6124530EF5403705E
:10283000F890017A7480F0A37404F0A314F0A3E577
:1028400038F0A3E539F0E53530E006A37480F08078
:1028500005E490017FF0123AB8124530EF5403704E
:10286000F8E53530E01CE539B4FF070538E4F53903
:1028700080020539E53BB4FF07053AE4F53B8002E9
:10288000053B0535E535700205340227C1E4F53412
:10289000F535743C2535F8E6FF74782535F58274F6
:1028A000013534F583EFF00535E535700205346404
:1028B00008453470DD8034900138E0900179F0A350
:1028C00074FEF090013AE090017BF090013BE090C3
:1028D000017CF090013CE090017DF090013DE090A2
:1028E000017EF090013EE090017FF09000007412B4
:1028F000F002299290017AE064556003022992A3C4
:10290000E064AA60030229927F817E1E1245C9AD50
:1029100007EDF46003ED70027D07E4F536F537ED61
:10292000FFC3E5379FE53694005023E4F534F535D1
:102930001246E00535E53570020534C394FFE534F1
:10294000940040EC0537E53770D5053680D1E4F5C5
:1029500034F5351246E00535E53570020534C3948B
:1029600041E534940040EC53D77FE4F534F535125B
:1029700046E00535E53570020534C394FFE534942F
:102980000040EC7BFF7A0279008B138A14891512C0
:102990002A997B017A017978754800754940D207F8
:1029A0007F02123998E4FEFF22BB010689828A83E6
:1029B000E0225002E722BBFE02E32289828A83E4FE
:1029C0009322BB010CE58229F582E5833AF583E089
:1029D000225006E92582F8E622BBFE06E92582F8A8
:1029E000E222E58229F582E5833AF583E49322F831
:1029F000BB010DE58229F582E5833AF583E8F022F3
:102A00005006E92582C8F622BBFE05E92582C8F2F8
:102A100022BB0110E58229F582E5833AF583E0F5D2
:102A2000F0A3E0225009E92582F886F008E622BBEF
:102A3000FE0AE92582F8E2F5F008E222E5832AF5AC
:102A400083E993F5F0A3E99322BB010789828A8386
:102A5000022AA85005E9F8022A9FBBFE05E9F80200
:102A60002AB189828A83022ABABB010DE58229F53F
:102A700082E5833AF583022AA85007E92582F80205
:102A80002A9FBBFE07E92582F8022AB1E58229F5D3
:102A900082E5833AF583022ABA8A838982E473E65F
:102AA000FB08E6FA08E6F922E0FBA3E0FAA3E0F966
:102AB00022E2FB08E2FA08E2F922E493FB740193B4
:102AC000FA740293F9228F2B752CFDA807E6FFC438
:102AD0001354036003022B85EFC413131354012016
:102AE000E003022B85E6541F64016003022B85E896
:102AF00004F8E624FA6003022BDDE52B2402F9E753
:102B000064227038E52B2404F8E6FE08E660030230
:102B10002BDDEE6003022BDD7BFF7A4779FEE52B90
:102B20002406F8E6FE08E6FFC374229FE49E500ADE
:102B30007C007D227E007F2280458043E52B24029D
:102B4000F9E764216003022BDDE52B2404F8E6FE9F
:102B500008E66003022BDDEE6003022BDD7BFF7ACB
:102B6000487944E52B2406F8E6FE08E6FFC374091D
:102B70009FE49E500A7C007D097E007F0980008EC4
:102B8000318F328039A82BE6FFC4135403640170DF
:102B90004CEF541F64017045E804F8E624F7602701
:102BA00024087039E52B2402F808E66403702E121D
:102BB00040AC7B017A017937753100753240C2062D
:102BC000E4FF12326B80137B017A0179787548003B
:102BD000754940D207E4FF123998E4F52CAF2C2256
:102BE000900017E0241EF582E43400AD82F5228DBA
:102BF0002375240175253C9001377403F090017909
:102C0000E0900138F090017AE0900139F090017B7A
:102C1000E090013AF090017CE0FE90013BF064020C
:102C20006008EE64036003022CAE90017DE0FE05B7
:102C300025E525AC247002052414F5828C83EEF082
:102C400090017EE0FE0525E525AC247002052414E4
:102C5000F5828C83EEF090017FE0FE0525E525AC42
:102C6000247002052414F5828C83EEF0E4FF052322
:102C7000E523AC227002052214F5828C83E0FE0568
:102C800025E525AC247002052414F5828C83EEF032
:102C9000741E2FF582E43400F583E4F074782FF588
:102CA00082E43401F583E4F00FBF38C28040E4FFD2
:102CB0000523E523AC227002052214F5828C83E003
:102CC000FE0525E525AC247002052414F5828C83CD
:102CD000EEF0741E2FF582E43400F583E4F074788E
:102CE0002FF582E43401F583E4F00FBF3BC2750F8A
:102CF0004022E4FDFC7530FF7855E66480600302F5
:102D00002DFF7857E6FE08E6F52CEEFFE46003029F
:102D10002DDDEF24FE602A14604E24026003022D94
:102D2000DDE52C6003022DDD7873860308E6FA08E2
:102D3000E6F98B2D8A2EF52F1229A97C00FD022D94
:102D4000DDE52C6003022DDD7876860308E6FA08BF
:102D5000E6F98B2D8A2EF52F900002122A11FAE542
:102D6000F0FFEAFCEFFD80757879860308E6FA0843
:102D7000E6F975F003E52CA4F58285F083122A6943
:102D80008B2D8A2E892FE52C700BFC7D04785DE657
:102D90005480F680487859E6FE08E6FF4E600AEF58
:102DA00064097003EE64047034E52CC378529650C5
:102DB0002CAB2DAA2EA92F9000011229C27C00FD58
:102DC0001229A9547FFF785DE654804FFFF6740105
:102DD000252FF52FE4352EF52EEF4480F6ED4C60CF
:102DE0001E785BE6FE08E6FFD3ED9FEC9E4004AC48
:102DF00006AD07AB2DAA2EA92F12456EE4F530AF14
:102E000030227864E61392067861E6FE08E6FFC396
:102E10009440EE940040047F4080008F2B852B2C43
:102E2000785DE6FF547F64017068EF30E72608861E
:102E30000308E6FA08E6F9C2087D02E4FF123EB094
:102E40007860740226F618E436F6152B152B785D9B
:102E5000E6547FF6E4F52DE52BC313FFE52DC39F64
:102E6000504D785E860308E6FA08E6F9C2087D014F
:102E7000E4FF123EB07860740126F618E436F67B63
:102E8000FF7A4879D5C2087D01E4FF123EB0052DD6
:102E900080C5785E860308E6FA08E6F9C208AD2B1D
:102EA000E4FF123EB07860E52B26F618E436F6789B
:102EB00064E654FBF6C37862E6952CFF18E69400AE
:102EC000FEF608EFF64E701EE52C6440601875960D
:102ED0001175970AE59620E7FB78637601E4785D43
:102EE000F67864F6800B759611759702E59620E7E3
:102EF000FB300614E52CFB7A007861E6F53208E633
:102F0000F533E4FDFF122075227B107A10E4F9FD01
:102F1000FCEDAE047802C333CE33CED8F92400FFE3
:102F2000EE341EFE1245C9BFFF04AB05800B0DBD7C
:102F300000010CED64104C70D8E4F9EBC394105010
:102F40003FEBC394014039EB14FA75F004A424005C
:102F50001245C3EF64057028EA75F004A424011239
:102F600045C3EF701BEA75F004A424021245C3BFE9
:102F7000500EEA75F004A424031245C3EF70010952
:102F8000E9600302300AEB75F004A42400FFE5F0C9
:102F9000341EFE7D051243AEEB75F004A42401122D
:102FA00043A6EB75F004A42402FFE5F0341EFE7D79
:102FB000501243AEEB75F004A424031243A6EB7049
:102FC00010EB75F004A42440FFE5F0341EFE0D80E4
:102FD00036EB24FFFFE434FFFEEF7802C333CE3339
:102FE000CED8F92440FFEE341EFE1245C9AA070AC6
:102FF000EAC394FE40027AFEEB75F004A42440FF7D
:10300000E5F0341EFEAD021243AE22C2067F01126D
:1030100047651247405015759694E59620E7FB5397
:1030200097BFE59620E7030230D880F61247594053
:10303000030230D81247D98F2B7871E66403600AF7
:1030400008E64402F6752CF9806DC37870E6952B7E
:1030500018E69400500E7871760108E64402F67581
:103060002CF28053786C860308E6FA08E6F9AD2B5B
:103070007F011241B37872E654FDF6AF2B7E00C398
:103080007870E69FF618E69EF618EF26F618EE36EC
:10309000F67870E618466006E52B644060067871A5
:1030A0007601D206E4F52C759694E59620E7FB535D
:1030B00097FEE59620E7FB7872E630E01B300603CA
:1030C00054FEF6E52BFB7A00786FE6F53208E6F55C
:1030D00033AD2C7F021220752260400137000000C2
:1030E00000000000000000000000000000000000E0
:1030F00000000000000000000000000000000000D0
:1031000000000000000000000000000000000000BF
:10311000000000000000000000000000006040010E
:103120007800000000000000000000000000000027
:10313000000000000000000000000000000000008F
:10314000000000000000000000000000000000007F
:10315000000000000000000000000000000000006F
:10316000004100170041000C004100000041001820
:10317000FE010F00410001804101368041017700CE
:103180004100190042001A07D0C100C103C104C1A7
:1031900001C102010800010900010A00020D00003E
:1031A000020B000000752CFF7857E6FC08E6FDECEA
:1031B00060030232687855E6541F60030232687873
:1031C0005CE61846600302326818E618466003029F
:1031D00032687853E664047048ED4C60197876865E
:1031E0000308E6FA08E6F99000051229C278586645
:1031F000700218E670727858E67851F67876860391
:1032000008E6FA08E6F99000051229C278586670B7
:103210000218E67050D2061244637F0612440880FA
:10322000447853E6640670407857E6FE08E6FF4EA1
:1032300060177876860308E6FA08E6F9900005122A
:1032400029C2B50723E4B5061F7858E67851F67809
:1032500058E61846700A7F041244081244AF8005ED
:10326000C206124463E4F52CAF2C228F2D8B2E8ADC
:103270002F8930E52D601514601280007BFF7A41A4
:1032800079627D8D7C021220187FFC22E52D600A78
:103290007853E6640660037FF722E52D75F007A4F6
:1032A000245EF9AF01EF2405F8E6FE64016009EE43
:1032B0007FFEB405027FFB22E5E6A2E1920753E61A
:1032C000FDAA2FA930A807A62E08A60208A601EF7E
:1032D0002403F8A63108A632EF2405F87602A206E8
:1032E000E4335401FEEF2406F8E654FE4EF6E52DD5
:1032F00014600B04702C7864E64404F68024D3E553
:10330000329440E531940040047D408004AF32ADFA
:10331000077865860308E6FA08E6F9D2087F011205
:103320003EB030070343E6027F0022E59620E7FB2C
:103330008F96EB6024B401398A838982ED1D700673
:103340007DFFEC60131CE59620E7FBE0F597058216
:10335000E5827002058380E422E9F8ED1D70067DA8
:10336000FFEC600C1CE59620E7FBE6F5970880EB88
:10337000228A838982ED1D70067DFFEC60141CE5B6
:103380009620E7FBE493F5970582E58270020583BA
:1033900080E322EB602E8A838982ED7004EC602347
:1033A0001CE59620E7FB8F964396C0E59620E7FB49
:1033B000E597F0DD04EC600B1C0582E58270EC05FE
:1033C0008380E822E9F8ED7004EC601C1CE596208F
:1033D000E7FB8F964396C0E59620E7FBE597F2DD85
:1033E00004EC60041C0880EF22C0E0C0F0C083C081
:1033F00082C0D075D000C000C001C002C003C004AC
:10340000C005C006C0071247708F2712477B8F2860
:103410001247868F291247918F2AE52730E32E1213
:1034200047DF1247E57864E6FF30E10618E66403FB
:10343000600AEF30E2097863E6B4020343280178BA
:1034400072E630E10818E6B40303432902E52730A9
:10345000E203124301E52730E1031247D2E52730AA
:10346000E0031246FEE52830E1031235EEE529308F
:10347000E10312300BE52830E003123696AF2A1232
:103480004765D007D006D005D004D003D002D001C4
:10349000D000D0D0D082D083D0F0D0E032752CFFD5
:1034A000785CE66402184660030235437858E618F3
:1034B0004660030235437855E6FF20E703023543B3
:1034C0007853E6FEC39404407AE4F516F517EF54FA
:1034D0001F14601214601D24027059785AE61846B1
:1034E0007052F52C804EC3785AE6940118E6940089
:1034F0005042803D7859E6FC08E6FDAA04547F4A14
:103500007006EEB4040280297853E6B40626ED2452
:103510007F60122480701D7871E6B406067516016E
:10352000751700800C786AE6B406067516017517E3
:1035300000E4F52CE52C700BFB7A0079167D02FC7B
:1035400012456EAF2C22752CFF785CE6184660039E
:103550000235EB7855E6541F24FE60030235EB7804
:1035600058E6184660030235EB7859E6FE08E65443
:103570007FFF4E700D7853E6C394044005E4F52CAC
:103580008069C3EF9403EE940050607853E66406BC
:103590007059F52C785AE6547FFF124765785AE641
:1035A00030E70B759611759740E59620E7FB785A42
:1035B000E620E718759694E59620E7FB5397DFE53C
:1035C0009620E7FB439780E59620E7FB785AE624B0
:1035D0007F600F248070147871E66403600D7601BB
:1035E0008009786AE6640260027601AF2C227F01CE
:1035F0001247651247335010759611E4F597E5961A
:1036000020E70302369580F6786AE66402600302DA
:1036100036957868E6FE08E6FFD39440EE940040C5
:10362000047F4080008F2B7E00C37869E69FF618E8
:10363000E69EF618EF26F618EE36F6786BE613924D
:10364000067868E6FE08E6FFD39400EE9400402476
:10365000D3EF9440EE940040047D4080047869E606
:10366000FD7865860308E6FA08E6F9D2087F0112BC
:103670003EB08009786BE654FEF6187601300615E8
:10368000E52BFB7A007868E6F53208E6F533E4FDD1
:103690007F0112207522E4FF124765124719400589
:1036A00012470C501D759611E4F597E59620E7FB3F
:1036B000759611759780E59620E7FB78637601E4AF
:1036C00008F612474D505F7864E6FF30E3028053FE
:1036D0007863E66401703E785DF6123F837F551291
:1036E0002AC6BFFD147855E6FFC4135403700512B3
:1036F0003B42803212464C802D7855E620E72778F1
:1037000063E664036020785CE6184660197864E636
:103710004408F680117863E6B40305123901800687
:103720007864E64402F67863E6B40208124726405D
:1037300003122E022275440175457C7546007547BB
:10374000AA90017AE0F548A3E0F549E548607FD307
:10375000943F507AE5496076D394085071E4FFEFC6
:10376000C3954950250545E545AC44700205441410
:10377000F5828C83E0FE0547E547AC4670020546BE
:1037800014F5828C83EEF00F80D5E4FFEFC39548EB
:1037900050140547E547AC467002054614F5828C87
:1037A00083E4F00F80E67E007FAA7C007D1EE54961
:1037B0002548F54F7B03123C513083FD900017E5FF
:1037C00049F090000CE548F09000007401F0228B65
:1037D000238A24892553E6FD122065E4FF74512FC6
:1037E000F8E4F60FBF2BF6AB23AA24A925122A4929
:1037F0007873A60308A60208A601AB23AA24A9256C
:10380000900003122A697876A60308A60208A6018A
:10381000AB23AA24A925900006122A697879A60369
:1038200008A60208A601AB23AA24A9259000091224
:1038300029C27852F653A98F43D720759601759700
:1038400008E59620E7FB75960B75970FE59620E740
:10385000FB1247A77853760343E6027596017597E6
:1038600001E59620E7FB7F0022C0E0C0F0C083C0E6
:1038700082C0D075D000C000C001C002C003C00427
:10388000C005C006C007E5F854F0FFF4440F52F835
:10389000EF30E752E508602C300113850C82850B70
:1038A00083E5A3F0050CE50C7007050B800385A3E9
:1038B00026D5080D300305300002D2FA12201A80F6
:1038C0000385080AE509601E30F91B300213850ED6
:1038D00082850D83E0F5A3050EE50E7007050D80CA
:1038E0000375A3001509D007D006D005D004D00376
:1038F000D002D001D000D0D0D082D083D0F0D0E0A0
:10390000327864E613920612479C8F2BC37862E6E6
:103910009F18E69400500E7863760108E64402F69C
:10392000752CF2805A785E860308E6FA08E6F9AD4F
:103930002BE4FF1241B3AF2B7E007860EF26F61820
:10394000EE36F6C37862E69FFF18E69EFEF608EFB5
:10395000F6E4F52CEF4E701CE52B6440601675966E
:1039600011759748E59620E7FB7863760108E654E1
:10397000FEF6800B759611759740E59620E7FB30B3
:103980000615E52BFB7A007861E6F53208E6F5339B
:10399000AD2CE4FF122075228F448B458A4689475F
:1039A000E544601624FE601280007BFF7A41796254
:1039B0007D1A7C011220187FFC22E544600A7853AE
:1039C000E6640660037FF722E54475F007A4245EF1
:1039D000F9AF01EF2405F8E6FE64016009EE7FFE11
:1039E000B405027FFB22E5E6A2E1920853E6FDAAB8
:1039F00046A947A807A64508A60208A601EF240382
:103A0000F8A64808A649EF2405F87603A207E43390
:103A10005401FEEF2406F8E654FE4EF654F7F63055
:103A2000080343E6027F0022752CFF785CE6184607
:103A30006003023AB57855E6541F24FE7077785932
:103A4000E6FE08E6547FFF4E700D7853E6C39404FB
:103A50004005E4F52C805EC3EF9403EE94005055CE
:103A60007858E61846704E7853E664067047F52C91
:103A7000785AE6547FFF124765785AE630E70B75AF
:103A80009611759710E59620E7FB785AE620E71027
:103A9000759694E59620E7FB439720E59620E7FB93
:103AA000785AE6247F600A2480700A78717606804E
:103AB00004786A7606AF2C2275440175457C7546FC
:103AC000007547AA75488090017BE0F549E549609B
:103AD00070D39408506BE4FFEFC39549502505451A
:103AE000E545AC447002054414F5828C83E0FE0584
:103AF00047E547AC467002054614F5828C83EEF02C
:103B00000F80D5E4FFEFC3954850140547E547AC57
:103B1000467002054614F5828C83E4F00F80E67E41
:103B2000007FAA7C007D1EE5492548F54F7B0312E6
:103B30003C513083FD900017E549F090000CE548BA
:103B4000F022E4F52B7856E6B40C00506A903B5412
:103B5000F8282873023B78023B7F023BB7023B8682
:103B6000023BB7023B8D023B94023BB7023B9B02F8
:103B70003BA2023BA9023BB012349D8F2B803B122B
:103B800035468F2B8034123A288F2B802D12404AD5
:103B90008F2B8026122CF28F2B801F12201E8F2B32
:103BA00080181231A58F2B80111242C38F2B800AEF
:103BB0001243D78F2B8003752BFFE4FF124765E577
:103BC0002BB4FF0312464CAF2B22AE07E4FB124787
:103BD00065300813A80674107E00088005C333CE34
:103BE00033CED8F9FF8013AF0674207E00A80708F3
:103BF0008005C333CE33CED8F9FFD3ED9FEC9E5072
:103C0000034303803009034303403007204303206C
:103C1000300803430304759611759740E59620E735
:103C2000FB7596128B97E59630E72580F97596140B
:103C3000759780E59620E7FB7596158B97E596209E
:103C4000E7FB20080B759612E4F597E59620E7FB55
:103C5000228E4A8F4BAF4FC207C2AEE5A120E7FBD1
:103C600020040312200385A350C2FF300305300057
:103C700002C2FAE54F605430F91EEF601BEB30E1F1
:103C800013854A83854B82E0F5A3054BE54B70070E
:103C9000054A8003E4F5A31F30FF19C2FFEB30E0B3
:103CA0000E8D828C83E5A3F00DBD00010C80038591
:103CB000A350154F2003BC3000B9200709E5A130FF
:103CC000E3B1D20780ADE5A120E3A83003053000C1
:103CD00002D2FAAF4F2275440175457C900017E07F
:103CE000241EF582E43400AF82F5468F4775480004
:103CF0007549AA7D84E4FF0545E545AA447002059F
:103D00004414F5828A83E0FE0549E549AA48700219
:103D1000054814F5828A83EEF00FBF04DAE4FF054C
:103D200045E545AA447002054414F5828A83E0FE05
:103D30000549E549AA487002054814F5828A83EED0
:103D4000F00FBF04DA7E007FAA8D4F7B02E4FDFCFA
:103D5000123C513083FD22024282E493A3F8E493A3
:103D6000A34003F68001F208DFF48029E493A3F86E
:103D70005407240CC8C333C4540F4420C8834004E0
:103D8000F456800146F6DFE4800B0102040810209F
:103D900040809030D9E47E019360BCA3FF543F3053
:103DA000E509541FFEE493A360010ECF54C025E043
:103DB00060A840B8E493A3FAE493A3F8E493A3C8FB
:103DC000C582C8CAC583CAF0A3C8C582C8CAC5838C
:103DD000CADFE9DEE780BE12460A90017BE054FEAE
:103DE0001244F11245DB90017BE0FF1244F8E490AD
:103DF0000017F0C2071245A890017DEFF0603FE484
:103E0000FDFC90017DE0FFFBC3ED9B7480F86C9896
:103E10005031EF24FFFFE434FFFEEFB50508EEB5A7
:103E20000404D2078002C2071245A8747E2DF582D1
:103E300074013CF583EFF00DBD00010C80C4D20786
:103E40001245A80246208F30E4F532E5306005C304
:103E5000940340127BFF7A4179627D4D7C001220F1
:103E6000187532FC8041E5E6A2E1920753E6FDE5D4
:103E70003075F007A4245EF98931E5312405F8E6B0
:103E800064016023E53024FE600A04700C7F011297
:103E9000433E80057F01124372E5312405F8760127
:103EA000E5312406F8E4F630070343E602AF322298
:103EB0008F338D348B358A368937E59620E7FBE5DD
:103EC000334420F596E5351460132403601A14601A
:103ED00020147026AD37AF34124675801DAC36AD58
:103EE00037AF341246368012AD37AF341246898070
:103EF00009AC36AD37AF341245F330081CE533D387
:103F000094004015AF33124765759691E59620E70A
:103F1000FB439701E59620E7FB22AD0753E6FD75CD
:103F2000960E759701E59620E7FB759691E596202C
:103F3000E7FBAF97EF30E50B759611759740E59667
:103F400020E7FBEF30E20B759611E4F597E596203C
:103F5000E7FBBD0303124108BD12031241FABD1174
:103F600003122BE07B017A017937E50FFD7C007F9E
:103F70002112332B759611759701E59620E7FB43C7
:103F8000E60222752B55A92B7A007B007D08E4FF01
:103F90001241B3759611759740E59620E7FBE52B26
:103FA0002402F8E6FC08E6FAECFFEAFEE52B240220
:103FB000F8A60608A607E52B2404F8E6FC08E6FAAE
:103FC000ECFFEAFEE52B2404F8A60608A607E52B7D
:103FD0002406F8E6FC08E6FAECFFEAFEE52B2406E8
:103FE000F8A60608A60722A3F0A3E538F0A3E53952
:103FF000F0E4A3F075440175457C7546007547AA49
:1040000090017BE0FD6042D3943E503DE4FFEFC35E
:104010009D50250545E545AA447002054414F582E6
:104020008A83E0FE0547E547AA467002054614F577
:10403000828A83EEF00F80D67E007FAA8D4F7B02AE
:10404000E4FDFC123C513083FD22752CFF7857E6CD
:10405000FE08E6FFC39480EE9400504D785CE618AD
:104060004670467855E6541F703F785AE6184670F9
:10407000387853E6B4030BEF4E60197F04124408FE
:1040800080127853E6B4040F7858E6184670057F1E
:1040900003124408E4F52CE52C700EF5967858E6EA
:1040A0004480F597E59620E7FBAF2C22900017E0BF
:1040B000241EF582E43400AF82F52D8F2E752F017A
:1040C0007530399001377403F090000CE09001389E
:1040D000F0E4FF90000CE0FEEFC39E5025052EE5B6
:1040E0002EAC2D7002052D14F5828C83E0FD053079
:1040F000E530AA2F7002052F14F5828A83EDF00FA8
:1041000080D1EE2402F50F22900017E0241EF582E4
:10411000E43400AF82F5228F237524017525399090
:1041200001377403F090000CE0900138F0E4FF9048
:10413000000CE0FEEFC39E50250523E523AC227062
:1041400002052214F5828C83E0FE0525E525AC24CA
:104150007002052414F5828C83EEF00F80D1750F68
:104160004022433A5C55736572735C746573745C8A
:1041700053696D706C696369747953747564696FA0
:104180005C76335F776F726B73706163655C48490F
:10419000445F5350495C6C69625C65666D385F755D
:1041A00073625C7372635C65666D385F75736264BD
:1041B0002E63008F2D8D2E8B2F8A308931E52ED3E3
:1041C00094004035E59620E7FBE52D44E0F596E5C3
:1041D0002F1460112403601824FE701DAD31AB2D27
:1041E000AF2E02458BAC30AD31AB2DAF2E0244D09B
:1041F000AD31AB2DAF2E12454F22752201752378BC
:10420000752401752537E4FF0523E523AC227002F0
:10421000052214F5828C83E0FE0525E525AC24708B
:1042200002052414F5828C83EEF074782FF582E475
:104230003401F583E4F00FBF40CE750F40221246E3
:104240000A90017BE01244F190017AE06031E4FDD4
:10425000FC90017AE024FEFFE434FFFEC3ED9FEE04
:104260006480F8EC6480985016747D2DF58274019A
:104270003CF583E0FF1244F80DBD00010C80D20232
:104280004620124438122F09C297D296D2A090002D
:1042900000E0B4030A7F03123F1AE4900000F0909C
:1042A0000000E0B4110A7F11123F1AE4900000F000
:1042B000900000E0B412D77F12123F1AE490000081
:1042C000F080CB7859E6FE08E67DFFC39401EE94BA
:1042D00000502B785CE66401184670227858E61886
:1042E00046701B7855E6B481157853E6B4060F7B0B
:1042F000FF7A4879D57D017C0012456EE4FDAF055B
:104300002278637601786A76067871760675960F5C
:1043100075978FE59620E7FB759601759701E596F1
:1043200020E7FB75960B75970FE59620E7FBE5C92F
:10433000A2E650047F0380027F0112440822124744
:1043400065759611759708E59620E7FB759691E5DA
:104350009620E7FBE59720E3F3759611759708E53E
:104360009620E7FB759691E59620E7FBE59720E31D
:10437000F322124765759614759710E59620E7FBB2
:10438000759694E59620E7FBE59720E4F37596147F
:10439000759710E59620E7FB759694E59620E7FB68
:1043A000E59720E4F322FFE5F0341EFEE4FDA2AF22
:1043B0009205C2AF75FFA075EF028F828E8375B72D
:1043C000A575B7F1438F0175FFA075EF02EDF053AE
:1043D0008FFEA20592AF227FFF785AE6FE7858E65C
:1043E000FDEEC3940150207853E6B4061A785CE6DB
:1043F00018467013ED70107855E6541FFEBE010785
:10440000C206124463E4FF228F2D7853E6F52EC3D3
:1044100094054009E52D940550031244AFE52DB4F1
:1044200005047854A62E7853A62DE52E652D600739
:10443000AD2DAF2E1245112285BF221247B2124771
:10444000EA1220141247C41247EE1247F21247F63E
:104450001247FA1246B01246D01247CB1247BB851C
:1044600022BF22300608786A760178717601D20779
:10447000D208C2097D407C007F01123BCAC207D22C
:1044800008C2097D407C007F01023BCAAD07ED44B4
:1044900080F596E59620E7FBAF97EF7F00FEED14E1
:1044A0004480F596E59620E7FBAD97ED420722E5BF
:1044B000E6A2E1920653E6FD752F01AF2F123E46AC
:1044C000052FE52FC3940340F230060343E6022292
:1044D0008D828C831FEF600BE59620E7FBE597F05C
:1044E000A380F1E59620E7FBEB4420F596E597F0F5
:1044F00022FF1244F8A3E0FF8FC2C2C0E4FFFE20F7
:10450000C00B0FBF00010EBE03F5BFE8F2A2C1B39E
:10451000228F2FBD0619D297C296D2A07B017A01B5
:104520007978754800754940D2077F021239982280
:1045300090017A7401F0A3F0A37405F0123735905E
:104540000017E0241EF582E43400F583E0FF22A882
:10455000051FEF600BE59620E7FBE597F20880F179
:10456000E59620E7FBEB4420F596E597F222786389
:10457000E6B40116785EA60308A60208A60108A6FE
:104580000408A605087602E408F622A8051FEF60D5
:104590000AE59620E7FBA6970880F2E59620E7FB60
:1045A000EB4420F596A69722C2C0E4FFFE20C00B84
:1045B0000FBF00010EBE03F5BFE8F2A207B392C120
:1045C000AFC222FFE5F0341EFEA2AF9207C2AF8F4A
:1045D000828E83E493FFA20792AF22D2C5C2C0E4C9
:1045E000FFFE20C00B0FBF00010EBE03F5BFE8F2B7
:1045F000C2C5228D828C83AE071FEE600CE596202B
:10460000E7FBE493F597A380EE22D2C5E4FFFE20FA
:10461000C00B0FBF00010EBE03F5BFE8F2C2C522FA
:10462000D2C4C2C0E4FFFE30C40B0FBF00010EBEF7
:1046300003F5BFE8F2228D828C83AE071FEE600B7C
:10464000E59620E7FBE0F597A380EF22E4FF124711
:104650006578637605759611759760E59620E7FB9A
:1046600022AF051244F8E4FFFE0FBF00010EEF6415
:10467000324E70F522A805AE071FEE600BE59620BE
:10468000E7FBE6F5970880EF22A805AE071FEE606E
:104690000BE59620E7FBE2F5970880EF2243E10265
:1046A00075A20F43A14043F80C43A40D43F8012227
:1046B00075B903758902758CE3E4F58A4388102285
:1046C00043E104E490001DF090001CF075C1D0227D
:1046D00075BC0875BA1F75BB0B43E88075D10822FD
:1046E000E4FFFE0FBF00010EBE01F8BFF4F522E4A7
:1046F00090017AF0A304F0A37406F0023FF478531B
:10470000E6C3940240057F0512440822759691E5A0
:104710009620E7FBE597A2E422759691E59620E7BF
:10472000FBE597A2E222759691E59620E7FBE597D7
:10473000A2E122759691E59620E7FBE597A2E52296
:10474000759694E59620E7FBE597A2E6227596918B
:10475000E59620E7FBE5971322759694E59620E70A
:10476000FBE597132275960E8F97E59620E7FB22BF
:10477000759686E59620E7FBAF9722759682E596BB
:1047800020E7FBAF9722759684E59620E7FBAF976D
:104790002275968EE59620E7FBAF9722759696E5F3
:1047A0009620E7FBAF97227863760143D78043D703
:1047B0004022E4F5BF53D9BFF5D9227BFF7A48796F
:1047C000CB0237CF75A0FB75F3802275E60275A882
:1047D000C0227854E6FF0244087F1712448C227FDF
:1047E0000D12448C228E2B8F2C2275DE0822E4F5CC
:1047F000F22275E2402243B2032275A90322060089
:10480000FF0901A1018503953F750826FF001500EA
:1048100009019102953F26FF00150009018102C0A0
:104820001201000200000040350801FE50000102A4
:104830000301090229000101048032090400000279
:104840000300000509211101000122220007058152
:10485000034000020705010340000A0403090401A4
:104860001A0353696C69636F6E204C6162730001B7
:10487000240348494420746F2053504920446576EE
:1048800069636500012203303132333435363738FD
:104890003941424344454600011403436F6E666943
:1048A0006720233100012203437573746F6D204923
:1048B0006E7465726661636500FF485BFF485FFF69
:1048C000486FFF4884FF4898FF48A5FF4820FF48ED
:0748D00032FF48B9060000A9
:017DF0000092
:027DF20000038C
:087DF80001200005005055AA0E
:00000001FF
