:020000040000FA
:10200000022066E5A1A2E69203E5F8540C24FF92B3
:1020100000D204222202396580FE220234E57FFFCD
:10202000785AE61846703D18E618467037785CE630
:1020300064011846702E7855E6FE30E727541F706D
:10204000237853E6B404087BFF7A4979CA800C7878
:1020500053E6B4060F7B007A0079517D017C0012B3
:05206000467AE4FF22B6
:1020660053D9BF787FE4F6D8FD75817B023E8E8A10
:10207600308B31ED6003022AA1EF60076402600332
:10208600022A8E900179E0603014603024F2B407A1
:10209600004003022A8E9020AA75F003A4C583256A
:1020A600F0C583730229F0022A8E02212E02215DD9
:1020B6000223170227AD0227CD0223797FFB7E7DFF
:1020C6001246D590017AEFF07FFA1246D590017B41
:1020D600EFF07FFD1246D590017CEFF07FFC1246B3
:1020E600D590017DEFF07FF91246D590017EEFF095
:1020F6007FF81246D590017FEFF0A374FFF0A3F0AE
:10210600A3F0A3F07FF01246D5900184EFF0A374FC
:10211600FFF07FF31246D5900186EFF07FF212466C
:10212600D5900187EF0229E6E5F820E0031247A9DA
:10213600E4F534F535741E2535F58274003534F52D
:1021460083E4F00535E53570020534643E453470A8
:10215600E412383102222EE5F820E0031247A99056
:10216600017BE024FCFF90017AE06F6003022237D6
:1021760090017CE064026003022237F534F5357481
:10218600782535F58274013534F583E0FF743C25F6
:1021960035F8A6070535E53570020534640845347B
:1021A60070DD1247DB12463CEF5403FFBF02F6E434
:1021B600F534F535743C2535F8E6FF74782535F5A4
:1021C6008274013534F583EFF00535E53570020587
:1021D600346408453470DD1240F012463CEF540377
:1021E60070F8E53F24FC90017AF0A37404F0A31480
:1021F600F0A3E541F0A3E542F0A3E543F012383140
:10220600E4F534F535743C2535F8E6FF7478253564
:10221600F58274013534F583EFF00535E535700246
:1022260005346408453470DD9000007411F0022A0C
:102236008E90017AE0700302231190017CE0642005
:102246006003022311F534F53574782535F582746B
:10225600013534F583E0FF743C2535F8A6070535CE
:10226600E535700205346408453470DD90017AE086
:10227600FFD3941E400875360075371E80057536E7
:10228600008F3790017DE0F538A3E0F539E4F534A9
:10229600F535C3E5359537E534953650441247DBB9
:1022A60012463CEF5403FFBF02F6900179E53DF07C
:1022B600A3E53EF0A3E53FF0E5401240E3E539B47F
:1022C600F0070538E4F539800674102539F539121A
:1022D600463CEF540370F80535E53570B505348096
:1022E600B1E4F534F535743C2535F8E6FF74782508
:1022F60035F58274013534F583EFF00535E5357033
:102306000205346408453470DD80681240F0022905
:10231600B190017AE0FD6490705CA3E0FF700CA3BD
:10232600E590F09000007412F08048E5A054F06447
:10233600407029EF6408702490017CE0FF7005432B
:1023460090088007EFB408035390F7124772900184
:102356007BE05590A3F0E06408F0801790017BE0E5
:102366005590FFA3E06F629012477290017BE05593
:1023760090A3F00229B1ED64F2702590017BE0FF95
:102386007006A3E5F2022754E5F25FFF90017CE0B8
:102396006F62F212477290017BE055F2A302275456
:1023A60090017AE0FD64A57022A3E0FF7005A3E525
:1023B600A58015E5A55FFF90017CE06F62A5124739
:1023C6007290017BE055A5A3022754ED648070242A
:1023D60090017BE0FF7005A3E5808015E5805FFF37
:1023E60090017CE06F628012477290017BE055801D
:1023F600A302275490017AE0FD64F17022A3E0FF66
:102406007005A3E5F18015E5F15FFF90017CE06FB3
:1024160062F112477290017BE055F1A3022754ED59
:1024260064A4702490017BE0FF7005A3E5A48015E9
:10243600E5A45FFF90017CE06F62A41247729001F1
:102446007BE055A4A302275490017AE0FD64A070B6
:1024560022A3E0FF7005A3E5A08015E5A05FFF902D
:10246600017CE06F62A012477290017BE055A0A349
:10247600022754ED64F3702490017BE0FF7005A3FE
:10248600E5F38015E5F35FFF90017CE06F62F312E0
:10249600477290017BE055F3A302275490017AE03E
:1024A600FD64A67022A3E0FF7005A3E5A68015E5EE
:1024B600A65FFF90017CE06F62A612477290017BD7
:1024C600E055A6A3022754ED64B0702490017BE08A
:1024D600FF7005A3E5B08015E5B05FFF90017CE0D5
:1024E6006F62B012477290017BE055B0A302275489
:1024F60090017AE0FD64F47022A3E0FF7005A3E585
:10250600F48015E5F45FFF90017CE06F62F41247FA
:102516007290017BE055F4A3022754ED64A7702462
:1025260090017BE0FF7005A3E5A78015E5A75FFF97
:1025360090017CE06F62A712477290017BE055A77D
:10254600A302275490017AE0FD64C77022A3E0FF3E
:102556007005A3E5C78015E5C75FFF90017CE06FB6
:1025660062C712477290017BE055C7A3022754ED5C
:1025760064F5702490017BE0FF7005A3E5F58015F6
:10258600E5F55FFF90017CE06F62F51247729001FE
:102596007BE055F5A302275490017AE0FD64AE7006
:1025A60022A3E0FF7005A3E5AE8015E5AE5FFF90C0
:1025B600017CE06F62AE12477290017BE055AEA3DC
:1025C600022754ED64BC702490017BE0FF7005A3E4
:1025D600E5BC8015E5BC5FFF90017CE06F62BC1234
:1025E600477290017BE055BCA302275490017AE024
:1025F600FD64BE7022A3E0FF7005A3E5BE8015E56D
:10260600BE5FFF90017CE06F62BE12477290017B55
:10261600E055BEA3022754ED64BD702490017BE013
:10262600FF7005A3E5BD8015E5BD5FFF90017CE069
:102636006F62BD12477290017BE055BDA30227541D
:1026460090017AE0FD64C47022A3E0FF7005A3E563
:10265600C48015E5C45FFF90017CE06F62C4124739
:102666007290017BE055C4A3022754ED64C3702425
:1026760090017BE0FF7005A3E5C38015E5C35FFF0E
:1026860090017CE06F62C312477290017BE055C3F4
:10269600A302275490017AE0FD64C67022A3E0FFEE
:1026A6007005A3E5C68015E5C65FFF90017CE06F67
:1026B60062C612477290017BE055C6A3022754ED0D
:1026C60064C5702390017BE0FF7005A3E5C5801506
:1026D600E5C55FFF90017CE06F62C512477290010D
:1026E6007BE055C5A3806790017AE0FD64E8703809
:1026F600A3E0FF7003A3802CE5E85FFF90017CE078
:102706006F62E812477290017BE055E8A3F012472A
:102716007290017EE5BEF0A3E5BDF053E8DF1247F7
:102726007290017DE5E8807BED64BB702390017BB0
:10273600E0FF7005A3E5BB8015E5BB5FFF90017C5C
:10274600E06F62BB12477290017BE055BBA38053DA
:1027560090017AE0FD64BA7021A3E0FF7005A3E55D
:10276600BA8015E5BA5FFF90017CE06F62BA124746
:102776007290017BE055BAA38029ED64D160030213
:102786002A8E90017BE0FF7005A3E5D18015E5D187
:102796005FFF90017CE06F62D112477290017BE08F
:1027A60055D1A3F00229E7E5C120E7061247BC127E
:1027B600477290017BE030E005123ED3800312435E
:1027C6004753C1EF0229E790017AE0FF700302291F
:1027D600B3A3E06F60030229B3E5F820E00643A443
:1027E6000D43F801E4F534F53574782535F5827432
:1027F600013534F583E0FF743C2535F8A607053529
:10280600E535700205346408453470DD90017AE0E0
:10281600FFD3941E400875360075371E8005753641
:10282600008F3790017EE0F538A3E0F539E4F53402
:10283600F535C3E5359537E534953650411247DB16
:1028460012463CEF5403FFBF02F6E4900179F0A371
:102856007404F0A3F074201240E3E539B4F00705E0
:1028660038E4F539800674102539F53912463CEFFF
:10287600540370F80535E53570B8053480B4900119
:102886007AE0FFD3941E400875360075371E800522
:102896007536008F37E537AE367805C333CE33CE7F
:1028A600D8F9F5378E3685403A85413B85423885DD
:1028B6004339E4F534F535C3E5359537E5349536D2
:1028C600400302298990017B7404F0A314F0A3E568
:1028D6003AF0A3E53BF0E53530E006A37480F080DE
:1028E60005E490017FF0123BB412463CEF540370AE
:1028F600F81247DB12463CEF5403FFBF02F6900185
:102906007C7402F0A3E538F0A3E539F0E53530E054
:1029160006A37480F08005E490017FF0123DD21288
:10292600463CEF540370F890017A7480F0A3740467
:10293600F0A314F0A3E538F0A3E539F0E53530E06F
:1029460006A37480F08005E490017FF0123BB41278
:10295600463CEF540370F8E53530E01CE539B4FF2A
:10296600070538E4F53980020539E53BB4FF07056C
:102976003AE4F53B8002053B0535E5357002053442
:102986000228BDE4F534F535743C2535F8E6FF74C8
:10299600782535F58274013534F583EFF00535E594
:1029A60035700205346408453470DD803490013892
:1029B600E0900179F0A374FEF090013AE090017B7B
:1029C600F090013BE090017CF090013CE090017DAD
:1029D600F090013DE090017EF090013EE090017F95
:1029E600F09000007412F0022A8E90017AE064558D
:1029F6006003022A8EA3E064AA6003022A8E7F8106
:102A06007E1E1246D5AD07EDF46003ED70027D071C
:102A1600E4F536F537EDFFC3E5379FE5369400500C
:102A260023E4F534F5351247CC0535E53570020556
:102A360034C394FFE534940040EC0537E53770D590
:102A4600053680D1E4F534F5351247CC0535E53544
:102A560070020534C39441E534940040EC53D77FAB
:102A6600E4F534F5351247CC0535E5357002053405
:102A7600C394FFE534940040EC7BFF7A0279008B27
:102A8600138A148915122B957B017A01797875487A
:102A960000754940D2077F02123A94E4FEFF22BB3A
:102AA600010689828A83E0225002E722BBFE02E306
:102AB6002289828A83E49322BB010CE58229F5826E
:102AC600E5833AF583E0225006E92582F8E622BB43
:102AD600FE06E92582F8E222E58229F582E5833AB7
:102AE600F583E49322F8BB010DE58229F582E5839F
:102AF6003AF583E8F0225006E92582C8F622BBFEA5
:102B060005E92582C8F222BB0110E58229F582E596
:102B1600833AF583E0F5F0A3E0225009E92582F82F
:102B260086F008E622BBFE0AE92582F8E2F5F008FF
:102B3600E222E5832AF583E993F5F0A3E99322BB24
:102B4600010789828A83022BA45005E9F8022B9B90
:102B5600BBFE05E9F8022BAD89828A83022BB6BB40
:102B6600010DE58229F582E5833AF583022BA4500F
:102B760007E92582F8022B9BBBFE07E92582F802AE
:102B86002BADE58229F582E5833AF583022BB68AD9
:102B9600838982E473E6FB08E6FA08E6F922E0FB9D
:102BA600A3E0FAA3E0F922E2FB08E2FA08E2F9223E
:102BB600E493FB740193FA740293F9228F2B752C1C
:102BC600FDA807E6FFC41354036003022C81EFC47B
:102BD600131313540120E003022C81E6541F6401F1
:102BE6006003022C81E804F8E624FA6003022CD97B
:102BF600E52B2402F9E764227038E52B2404F8E675
:102C0600FE08E66003022CD9EE6003022CD97BFF96
:102C16007A4879F3E52B2406F8E6FE08E6FFC37446
:102C2600229FE49E500A7C007D227E007F22804502
:102C36008043E52B2402F9E764216003022CD9E5E1
:102C46002B2404F8E6FE08E66003022CD9EE6003A6
:102C5600022CD97BFF7A497939E52B2406F8E6FE62
:102C660008E6FFC374099FE49E500A7C007D097E36
:102C7600007F0980008E318F328039A82BE6FFC491
:102C86001354036401704CEF541F64017045E8044B
:102C9600F8E624F7602724087039E52B2402F808A3
:102CA600E66403702E1242067B017A01793775318C
:102CB60000753240C206E4FF12336780137B017A47
:102CC600017978754800754940D207E4FF123A94B5
:102CD600E4F52CAF2C22900017E0241EF582E43494
:102CE60000AD82F5228D2375240175253C900137B0
:102CF6007403F0900179E0900138F090017AE09049
:102D06000139F090017BE090013AF090017CE0FE01
:102D160090013BF064026008EE64036003022DAA92
:102D260090017DE0FE0525E525AC247002052414FE
:102D3600F5828C83EEF090017EE0FE0525E525AC5C
:102D4600247002052414F5828C83EEF090017FE056
:102D5600FE0525E525AC247002052414F5828C8336
:102D6600EEF0E4FF0523E523AC227002052214F5FC
:102D7600828C83E0FE0525E525AC2470020524142B
:102D8600F5828C83EEF0741E2FF582E43400F58311
:102D9600E4F074782FF582E43401F583E4F00FBF94
:102DA60038C28040E4FF0523E523AC2270020522E9
:102DB60014F5828C83E0FE0525E525AC247002051A
:102DC6002414F5828C83EEF0741E2FF582E4340011
:102DD600F583E4F074782FF582E43401F583E4F0AA
:102DE6000FBF3BC2750F4022E4FDFC7530FF7855DE
:102DF600E664806003022EFB7857E6FE08E6F52CB3
:102E0600EEFFE46003022ED9EF24FE602A14604E22
:102E160024026003022ED9E52C6003022ED97873B2
:102E2600860308E6FA08E6F98B2D8A2EF52F122A74
:102E3600A57C00FD022ED9E52C6003022ED97876FA
:102E4600860308E6FA08E6F98B2D8A2EF52F900000
:102E560002122B0DFAE5F0FFEAFCEFFD807578799A
:102E6600860308E6FA08E6F975F003E52CA4F58270
:102E760085F083122B658B2D8A2E892FE52C700BFE
:102E8600FC7D04785DE65480F680487859E6FE08B5
:102E9600E6FF4E600AEF64097003EE64047034E5E1
:102EA6002CC3785296502CAB2DAA2EA92F90000138
:102EB600122ABE7C00FD122AA5547FFF785DE654D7
:102EC600804FFFF67401252FF52FE4352EF52EEFF2
:102ED6004480F6ED4C601E785BE6FE08E6FFD3ED17
:102EE6009FEC9E4004AC06AD07AB2DAA2EA92F126F
:102EF600467AE4F530AF30227864E61392067861BC
:102F0600E6FE08E6FFC39440EE940040047F40804E
:102F1600008F2B852B2C785DE6FF547F640170684B
:102F2600EF30E72608860308E6FA08E6F9C2087DC8
:102F360002E4FF123FAC7860740226F618E436F617
:102F4600152B152B785DE6547FF6E4F52DE52BC39E
:102F560013FFE52DC39F504D785E860308E6FA08F9
:102F6600E6F9C2087D01E4FF123FAC7860740126E1
:102F7600F618E436F67BFF7A4979CAC2087D01E481
:102F8600FF123FAC052D80C5785E860308E6FA0879
:102F9600E6F9C208AD2BE4FF123FAC7860E52B26BC
:102FA600F618E436F67864E654FBF6C37862E695DE
:102FB6002CFF18E69400FEF608EFF64E701EE52C80
:102FC6006440601875961175970AE59620E7FB78B8
:102FD600637601E4785DF67864F6800B7596117574
:102FE6009702E59620E7FB300614E52CFB7A00787D
:102FF60061E6F53208E6F533E4FDFF122075227B23
:10300600107A10E4F9FDFCEDAE047802C333CE333A
:10301600CED8F92400FFEE341EFE1246D5BFFF04BB
:10302600AB05800B0DBD00010CED64104C70D8E4AF
:10303600F9EBC39410503FEBC394014039EB14FAFB
:1030460075F004A424001246CFEF64057028EA75D3
:10305600F004A424011246CFEF701BEA75F004A415
:1030660024021246CFBF520EEA75F004A4240312BE
:1030760046CFEF700109E96003023106EB75F004F3
:10308600A42400FFE5F0341EFE7D051244B7EB755F
:10309600F004A424011244AFEB75F004A42402FF4B
:1030A600E5F0341EFE7D521244B7EB75F004A424FD
:1030B600031244AFEB7010EB75F004A42440FFE557
:1030C600F0341EFE0D8036EB24FFFFE434FFFEEFE6
:1030D6007802C333CE33CED8F92440FFEE341EFE39
:1030E6001246D5AA070AEAC394FE40027AFEEB7599
:1030F600F004A42440FFE5F0341EFEAD021244B7EE
:1031060022C2067F0112485112482C50157596941A
:10311600E59620E7FB5397BFE59620E7030231D4F7
:1031260080F612484540030231D41248BE8F2B78F0
:1031360071E66403600A08E64402F6752CF9806DB0
:10314600C37870E6952B18E69400500E78717601D8
:1031560008E64402F6752CF28053786C860308E67E
:10316600FA08E6F9AD2B7F011242BC7872E654FDEF
:10317600F6AF2B7E00C37870E69FF618E69EF6182B
:10318600EF26F618EE36F67870E618466006E52B5A
:103196006440600678717601D206E4F52C75969443
:1031A600E59620E7FB5397FEE59620E7FB7872E667
:1031B60030E01B30060354FEF6E52BFB7A00786FF1
:1031C600E6F53208E6F533AD2C7F02122075226053
:1031D6004001370000000000000000000000000071
:1031E60000000000000000000000000000000000D9
:1031F60000000000000000000000000000000000C9
:1032060000000000000000000000000000000000B8
:10321600000000604001780000000000000000008F
:103226000000000000000000000000000000000098
:103236000000000000000000000000000000000088
:103246000000000000000000000000000000000078
:10325600000000000000004100170041000C004182
:10326600000000410018FE010F00410001804101ED
:103276003680410177004100190042001A07D0C18B
:1032860000C103C104C101C1020108000109000116
:103296000A00020D0000020B000000752CFF785793
:1032A600E6FC08E6FDEC60030233647855E6541F3D
:1032B6006003023364785CE61846600302336418E0
:1032C600E6184660030233647853E664047048EDFA
:1032D6004C60197876860308E6FA08E6F990000548
:1032E600122ABE785866700218E670727858E67828
:1032F60051F67876860308E6FA08E6F99000051294
:103306002ABE785866700218E67050D20612456FCB
:103316007F0612451180447853E66406704078575C
:10332600E6FE08E6FF4E60177876860308E6FA089A
:10333600E6F9900005122ABEB50723E4B5061F7804
:1033460058E67851F67858E61846700A7F04124512
:10335600111245BB8005C20612456FE4F52CAF2C51
:10336600228F2D8B2E8A2F8930E52D601514601241
:1033760080007BFF7A4179A87D8D7C021220187F20
:10338600FC22E52D600A7853E6640660037FF72287
:10339600E52D75F007A4245EF9AF01EF2405F8E6E4
:1033A600FE64016009EE7FFEB405027FFB22E5E6BE
:1033B600A2E1920753E6FDAA2FA930A807A62E0878
:1033C600A60208A601EF2403F8A63108A632EF24C8
:1033D60005F87602A206E4335401FEEF2406F8E669
:1033E60054FE4EF6E52D14600B04702C7864E6440A
:1033F60004F68024D3E5329440E531940040047D00
:10340600408004AF32AD077865860308E6FA08E621
:10341600F9D2087F01123FAC30070343E6027F0072
:1034260022E59620E7FB8F96EB6024B401398A8368
:103436008982ED1D70067DFFEC60131CE59620E782
:10344600FBE0F5970582E5827002058380E422E9B8
:10345600F8ED1D70067DFFEC600C1CE59620E7FB81
:10346600E6F5970880EB228A838982ED1D70067D3A
:10347600FFEC60141CE59620E7FBE493F5970582C4
:10348600E5827002058380E322EB602E8A838982BF
:10349600ED7004EC60231CE59620E7FB8F964396BF
:1034A600C0E59620E7FBE597F0DD04EC600B1C0514
:1034B60082E58270EC058380E822E9F8ED7004EC81
:1034C600601C1CE59620E7FB8F964396C0E5962088
:1034D600E7FBE597F2DD04EC60041C0880EF22C0F0
:1034E600E0C0F0C083C082C0D075D000C000C0016B
:1034F600C002C003C004C005C006C00712485C8FE6
:10350600271248678F281248728F2912487D8F2A02
:10351600E52730E32E1248C41248CA7864E6FF3025
:10352600E10618E66403600AEF30E2097863E6B460
:1035360002034328017872E630E10818E6B4030373
:10354600432902E52730E20312440AE52730E10366
:103556001248B7E52730E0031247EAE52830E103D1
:103566001236EAE52930E103123107E52830E00397
:10357600123792AF2A124851D007D006D005D00490
:10358600D003D002D001D000D0D0D082D083D0F0EA
:10359600D0E032752CFF785CE664021846600302C0
:1035A600363F7858E61846600302363F7855E6FF00
:1035B60020E70302363F7853E6FEC39404407AE4DC
:1035C600F516F517EF541F14601214601D240270CF
:1035D60059785AE618467052F52C804EC3785AE64A
:1035E600940118E694005042803D7859E6FC08E6BE
:1035F600FDAA04547F4A7006EEB40402802978536B
:10360600E6B40626ED247F60122480701D7871E6EC
:10361600B40606751601751700800C786AE6B406BE
:1036260006751601751700E4F52CE52C700BFB7A70
:103636000079167D02FC12467AAF2C22752CFF7893
:103646005CE6184660030236E77855E6541F24FE0A
:1036560060030236E77858E6184660030236E778D4
:1036660059E6FE08E6547FFF4E700D7853E6C39484
:10367600044005E4F52C8069C3EF9403EE940050F2
:10368600607853E664067059F52C785AE6547FFF45
:10369600124851785AE630E70B759611759740E552
:1036A6009620E7FB785AE620E718759694E596206B
:1036B600E7FB5397DFE59620E7FB439780E59620E7
:1036C600E7FB785AE6247F600F248070147871E651
:1036D6006403600D76018009786AE664026002760A
:1036E60001AF2C227F0112485112481F50107596C7
:1036F60011E4F597E59620E70302379180F6786A9C
:10370600E6640260030237917868E6FE08E6FFD3B6
:103716009440EE940040047F4080008F2B7E00C3CF
:103726007869E69FF618E69EF618EF26F618EE3646
:10373600F6786BE61392067868E6FE08E6FFD39401
:1037460000EE94004024D3EF9440EE940040047DB4
:103756004080047869E6FD7865860308E6FA08E69F
:10376600F9D2087F01123FAC8009786BE654FEF669
:10377600187601300615E52BFB7A007868E6F532F7
:1037860008E6F533E4FD7F0112207522E4FF1248B6
:103796005112480540051247F8501D759611E4F57B
:1037A60097E59620E7FB759611759780E59620E7D5
:1037B600FB78637601E408F6124839505F7864E6D0
:1037C600FF30E30280537863E66401703E785DF66D
:1037D60012407F7F55122BC2BFFD147855E6FFC4F9
:1037E6001354037005123C3E8032124758802D78E0
:1037F60055E620E7277863E664036020785CE618E0
:103806004660197864E64408F680117863E6B403E6
:10381600051239FD80067864E64402F67863E6B45C
:1038260002081248124003122EFE22754401754505
:103836007C7546007547AA90017AE0F548A3E0F545
:1038460049E548607FD3943F507AE5496076D39442
:10385600085071E4FFEFC3954950250545E545AC91
:10386600447002054414F5828C83E0FE0547E54763
:10387600AC467002054614F5828C83EEF00F80D5B7
:10388600E4FFEFC3954850140547E547AC46700280
:10389600054614F5828C83E4F00F80E67E007FAA4D
:1038A6007C007D1EE5492548F54F7B03123D4D30D2
:1038B60083FD900017E549F090000CE548F0900074
:1038C600007401F0228B238A24892553E6FD1220F9
:1038D6001AE4FF74512FF8E4F60FBF2BF6AB23AAB8
:1038E60024A925122B457873A60308A60208A6016B
:1038F600AB23AA24A925900003122B657876A6038C
:1039060008A60208A601AB23AA24A9259000061240
:103916002B657879A60308A60208A601AB23AA247C
:10392600A925900009122ABE7852F653A98F43D7CB
:1039360020759601759708E59620E7FB75960B7539
:10394600970FE59620E7FB1248937853760343E6F4
:1039560002759601759701E59620E7FB7F0022C068
:10396600E0C0F0C083C082C0D075D000C000C001E6
:10397600C002C003C004C005C006C007E5F854F085
:10398600FFF4440F52F8EF30E752E508602C30019F
:1039960013850C82850B83E5A3F0050CE50C7007F7
:1039A600050B800385A326D5080D300305300002DC
:1039B600D2FA122014800385080AE509601E30F940
:1039C6001B300213850E82850D83E0F5A3050EE5F7
:1039D6000E7007050D800375A3001509D007D006E4
:1039E600D005D004D003D002D001D000D0D0D082F0
:1039F600D083D0F0D0E0327864E61392061248887D
:103A06008F2BC37862E69F18E69400500E78637693
:103A16000108E64402F6752CF2805A785E860308A1
:103A2600E6FA08E6F9AD2BE4FF1242BCAF2B7E00A6
:103A36007860EF26F618EE36F6C37862E69FFF1832
:103A4600E69EFEF608EFF6E4F52CEF4E701CE52B2D
:103A560064406016759611759748E59620E7FB78E1
:103A660063760108E654FEF6800B7596117597404D
:103A7600E59620E7FB300615E52BFB7A007861E634
:103A8600F53208E6F533AD2CE4FF122075228F449B
:103A96008B458A468947E544601624FE60128000FD
:103AA6007BFF7A4179A87D1A7C011220187FFC22BF
:103AB600E544600A7853E6640660037FF722E5442E
:103AC60075F007A4245EF9AF01EF2405F8E6FE645D
:103AD600016009EE7FFEB405027FFB22E5E6A2E166
:103AE600920853E6FDAA46A947A807A64508A602D6
:103AF60008A601EF2403F8A64808A649EF2405F80E
:103B06007603A207E4335401FEEF2406F8E654FEDA
:103B16004EF654F7F630080343E6027F0022752C72
:103B2600FF785CE618466003023BB17855E6541F01
:103B360024FE70777859E6FE08E6547FFF4E700D36
:103B46007853E6C394044005E4F52C805EC3EF94F5
:103B560003EE940050557858E61846704E7853E6B2
:103B660064067047F52C785AE6547FFF1248517860
:103B76005AE630E70B759611759710E59620E7FB28
:103B8600785AE620E710759694E59620E7FB43976A
:103B960020E59620E7FB785AE6247F600A248070A9
:103BA6000A787176068004786A7606AF2C22754408
:103BB6000175457C7546007547AA75488090017B5E
:103BC600E0F549E5496070D39408506BE4FFEFC314
:103BD600954950250545E545AC447002054414F564
:103BE600828C83E0FE0547E547AC46700205461425
:103BF600F5828C83EEF00F80D5E4FFEFC395485035
:103C0600140547E547AC467002054614F5828C83D9
:103C1600E4F00F80E67E007FAA7C007D1EE5492544
:103C260048F54F7B03123D4D3083FD900017E54963
:103C3600F090000CE548F022E4F52B7856E6B40C3B
:103C460000506A903C50F8282873023C74023C7B72
:103C5600023CB3023C82023CB3023C89023C900225
:103C66003CB3023C97023C9E023CA5023CAC12359A
:103C7600998F2B803B1236428F2B8034123B248F38
:103C86002B802D1241468F2B8026122DEE8F2B80F6
:103C96001F12201E8F2B80181232A18F2B8011121B
:103CA60043CC8F2B800A1244E08F2B8003752BFFA9
:103CB600E4FF124851E52BB4FF03124758AF2B22FD
:103CC600AE07E4FB124851300813A80674107E00B4
:103CD600088005C333CE33CED8F9FF8013AF067400
:103CE600207E00A807088005C333CE33CED8F9FF5F
:103CF600D3ED9FEC9E5003430380300903430340FA
:103D060030072043032030080343030475961175DA
:103D16009740E59620E7FB7596128B97E59630E778
:103D26002580F9759614759780E59620E7FB7596BC
:103D3600158B97E59620E7FB20080B759612E4F5A0
:103D460097E59620E7FB228E4A8F4BAF4FC207C2FC
:103D5600AEE5A120E7FB20040312200385A350C291
:103D6600FF300305300002C2FAE54F605430F91EF9
:103D7600EF601BEB30E113854A83854B82E0F5A3A8
:103D8600054BE54B7007054A8003E4F5A31F30FF9A
:103D960019C2FFEB30E00E8D828C83E5A3F00DBDDA
:103DA60000010C800385A350154F2003BC3000B9D9
:103DB600200709E5A130E3B1D20780ADE5A120E3F4
:103DC600A8300305300002D2FAAF4F2275440175C0
:103DD600457C900017E0241EF582E43400AF82F59E
:103DE600468F477548007549AA7D84E4FF0545E579
:103DF60045AA447002054414F5828A83E0FE05490B
:103E0600E549AA487002054814F5828A83EEF00F48
:103E1600BF04DAE4FF0545E545AA447002054414EB
:103E2600F5828A83E0FE0549E549AA4870020548FD
:103E360014F5828A83EEF00FBF04DA7E007FAA8D26
:103E46004F7B02E4FDFC123D4D3083FD2202438B85
:103E5600E493A3F8E493A34003F68001F208DFF4A9
:103E66008029E493A3F85407240CC8C333C4540F21
:103E76004420C8834004F456800146F6DFE4800BF4
:103E860001020408102040809031D5E47E01936041
:103E9600BCA3FF543F30E509541FFEE493A3600121
:103EA6000ECF54C025E060A840B8E493A3FAE4938B
:103EB600A3F8E493A3C8C582C8CAC583CAF0A3C839
:103EC600C582C8CAC583CADFE9DEE780BE124716C7
:103ED60090017BE054FE1245FD1246E790017BE01F
:103EE600FF124604E4900017F0C2071246B4900190
:103EF6007DEFF0603FE4FDFC90017DE0FFFBC3ED4C
:103F06009B7480F86C985031EF24FFFFE434FFFE79
:103F1600EFB50508EEB50404D2078002C2071246C3
:103F2600B4747E2DF58274013CF583EFF00DBD006F
:103F3600010C80C4D2071246B402472C8F30E4F538
:103F460032E5306005C3940340127BFF7A4179A8BD
:103F56007D4D7C001220187532FC8041E5E6A2E119
:103F6600920753E6FDE53075F007A4245EF9893122
:103F7600E5312405F8E664016023E53024FE600A95
:103F860004700C7F0112444780057F0112447BE5D3
:103F9600312405F87601E5312406F8E4F630070306
:103FA60043E602AF32228F338D348B358A3689371A
:103FB600E59620E7FBE5334420F596E535146013D6
:103FC6002403601A146020147026AD37AF341247EC
:103FD60081801DAC36AD37AF341247428012AD3703
:103FE600AF341247958009AC36AD37AF341246FF71
:103FF60030081CE533D394004015AF331248517591
:104006009691E59620E7FB439701E59620E7FB228C
:10401600AD0753E6FD75960E759701E59620E7FB0D
:10402600759691E59620E7FBAF97EF30E50B759611
:1040360011759740E59620E7FBEF30E20B75961178
:10404600E4F597E59620E7FBBD0303124262BD1235
:1040560003124303BD1103122CDC7B017A0179376D
:10406600E50FFD7C007F21123427759611759701A7
:10407600E59620E7FB43E60222752B55A92B7A002D
:104086007B007D08E4FF1242BC759611759740E5EA
:104096009620E7FBE52B2402F8E6FC08E6FAECFF9F
:1040A600EAFEE52B2402F8A60608A607E52B24045B
:1040B600F8E6FC08E6FAECFFEAFEE52B2404F8A68F
:1040C6000608A607E52B2406F8E6FC08E6FAECFF48
:1040D600EAFEE52B2406F8A60608A60722A3F0A307
:1040E600E538F0A3E539F0E4A3F075440175457CA5
:1040F6007546007547AA90017BE0FD6042D3943E69
:10410600503DE4FFEFC39D50250545E545AA4470A3
:1041160002054414F5828A83E0FE0547E547AA4670
:104126007002054614F5828A83EEF00F80D67E0073
:104136007FAA8D4F7B02E4FDFC123D4D3083FD22AC
:10414600752CFF7857E6FE08E6FFC39480EE9400D0
:10415600504D785CE6184670467855E6541F703F19
:10416600785AE6184670387853E6B4030BEF4E607B
:10417600197F0412451180127853E6B4040F78585B
:10418600E6184670057F03124511E4F52CE52C7000
:104196000EF5967858E64480F597E59620E7FBAF4E
:1041A6002C22433A5C55736572735C73696D6F6E4E
:1041B6005C53696D706C696369747953747564696D
:1041C6006F5C76335F776F726B73706163655C4E9D
:1041D60045575F343850494E5F4144435F424F4133
:1041E60052445C6C69625C65666D385F7573625CCF
:1041F6007372635C65666D385F757362642E630007
:10420600900017E0241EF582E43400AF82F52D8F6E
:104216002E752F017530399001377403F090000C1C
:10422600E0900138F0E4FF90000CE0FEEFC39E50F2
:1042360025052EE52EAC2D7002052D14F5828C83F6
:10424600E0FD0530E530AA2F7002052F14F5828AAD
:1042560083EDF00F80D1EE2402F50F22900017E0D7
:10426600241EF582E43400AF82F5228F23752401E3
:104276007525399001377403F090000CE0900138F1
:10428600F0E4FF90000CE0FEEFC39E50250523E509
:1042960023AC227002052214F5828C83E0FE0525EC
:1042A600E525AC247002052414F5828C83EEF00F0C
:1042B60080D1750F40228F2D8D2E8B2F8A3089311C
:1042C600E52ED394004035E59620E7FBE52D44E046
:1042D600F596E52F1460112403601824FE701DADB9
:1042E60031AB2DAF2E024697AC30AD31AB2DAF2E94
:1042F6000245DCAD31AB2DAF2E12465B2275220195
:10430600752378752401752537E4FF0523E523AC6D
:10431600227002052214F5828C83E0FE0525E52530
:10432600AC247002052414F5828C83EEF074782F89
:10433600F582E43401F583E4F00FBF40CE750F40FB
:104346002212471690017BE01245FD90017AE0604B
:1043560031E4FDFC90017AE024FEFFE434FFFEC365
:10436600ED9FEE6480F8EC6480985016747D2DF510
:104376008274013CF583E0FF1246040DBD00010C7A
:1043860080D202472C124541123005C297D296D2EE
:10439600A0900000E0B4030A7F03124016E49000E8
:1043A60000F0900000E0B4110A7F11124016E4906C
:1043B6000000F0900000E0B412D77F12124016E41D
:1043C600900000F080CB7859E6FE08E67DFFC394A6
:1043D60001EE9400502B785CE66401184670227852
:1043E60058E61846701B7855E6B481157853E6B43E
:1043F600060F7BFF7A4979CA7D017C0012467AE472
:10440600FDAF052278637601786A760678717606BE
:1044160075960F75978FE59620E7FB75960175974C
:1044260001E59620E7FB75960B75970FE59620E755
:10443600FBE5C9A2E650047F0380027F0112451105
:1044460022124851759611759708E59620E7FB7577
:104456009691E59620E7FBE59720E3F375961175AF
:104466009708E59620E7FB759691E59620E7FBE52C
:104476009720E3F322124851759614759710E59626
:1044860020E7FB759694E59620E7FBE59720E4F395
:10449600759614759710E59620E7FB759694E59644
:1044A60020E7FBE59720E4F322FFE5F0341EFEE467
:1044B600FDA2AF9205C2AF75FFA075EF028F828E87
:1044C6008375B7A575B7F1438F0175FFA075EF0228
:1044D600EDF0538FFEA20592AF227FFF785AE6FEDB
:1044E6007858E6FDEEC3940150207853E6B4061AD8
:1044F600785CE618467013ED70107855E6541FFE8A
:10450600BE0107C20612456FE4FF228F2D7853E6DF
:10451600F52EC394054009E52D940550031245BBBD
:10452600E52DB405047854A62E7853A62DE52E6500
:104536002D6007AD2DAF2E12461D2285BF221248D3
:104546009E1248CF1248D31248DB1248D71248DFD2
:104556001248E31248E71248EB1248EF1247A91235
:1045660048B01248A78522BF22300608786A76012D
:1045760078717601D207D208C2097D407C007F019E
:10458600123CC6C207D208C2097D407C007F0102E8
:104596003CC6AD07ED4480F596E59620E7FBAF9760
:1045A600EF7F00FEED144480F596E59620E7FBAD1F
:1045B60097ED420722E5E6A2E1920653E6FD752F46
:1045C60001AF2F123F42052FE52FC3940340F2306F
:1045D600060343E602228D828C831FEF600BE5966D
:1045E60020E7FBE597F0A380F1E59620E7FBEB4497
:1045F60020F596E597F022FF124604A3E0FF8FC24E
:10460600C2C0E4FFFE20C00B0FBF00010EBE03F5C3
:10461600BFE8F2A2C1B3228F2FBD0619D297C29668
:10462600D2A07B017A017978754800754940D20796
:104636007F02123A942290017A7401F0A3F0A374D7
:1046460005F0123831900017E0241EF582E434009C
:10465600F583E0FF22A8051FEF600BE59620E7FB38
:10466600E597F20880F1E59620E7FBEB4420F59606
:10467600E597F2227863E6B40116785EA60308A6EB
:104686000208A60108A60408A605087602E408F6AC
:1046960022A8051FEF600AE59620E7FBA69708808B
:1046A600F2E59620E7FBEB4420F596A69722C2C0DA
:1046B600E4FFFE20C00B0FBF00010EBE03F5BFE8EE
:1046C600F2A207B392C1AFC222FFE5F0341EFEA2EA
:1046D600AF9207C2AF8F828E83E493FFA20792AF99
:1046E60022D2C5C2C0E4FFFE20C00B0FBF00010EE0
:1046F600BE03F5BFE8F2C2C5228D828C83AE071FCA
:10470600EE600CE59620E7FBE493F597A380EE2296
:10471600D2C5E4FFFE20C00B0FBF00010EBE03F59D
:10472600BFE8F2C2C522D2C4C2C0E4FFFE30C40B49
:104736000FBF00010EBE03F5BFE8F2228D828C8307
:10474600AE071FEE600BE59620E7FBE0F597A3802A
:10475600EF22E4FF12485178637605759611759736
:1047660060E59620E7FB22AF05124604E4FFFE0F44
:10477600BF00010EEF64324E70F522A805AE071F8A
:10478600EE600BE59620E7FBE6F5970880EF22A89A
:1047960005AE071FEE600BE59620E7FBE2F59708EE
:1047A60080EF2243E10275A20F43A14043F80D4377
:1047B600A40D43F8012243E104E490001DF09000AB
:1047C6001CF075C1D022E4FFFE0FBF00010EBE0132
:1047D600F8BFF4F522E490017AF0A304F0A374067E
:1047E600F00240F07853E6C3940240057F05124577
:1047F6001122759691E59620E7FBE597A2E42275CE
:104806009691E59620E7FBE597A2E222759691E55B
:104816009620E7FBE597A2E122759691E59620E7BB
:10482600FBE597A2E522759694E59620E7FBE597CA
:10483600A2E622759691E59620E7FBE59713227589
:104846009694E59620E7FBE597132275960E8F97CB
:10485600E59620E7FB22759686E59620E7FBAF975F
:1048660022759682E59620E7FBAF9722759684E53A
:104876009620E7FBAF972275968EE59620E7FBAF6D
:104886009722759696E59620E7FBAF972278637692
:104896000143D78043D74022E4F5BF53D9BFF5D9AA
:1048A600227BFF7A4979C00238CB75E60275A8C02B
:1048B600227854E6FF0245117F17124598227F0D94
:1048C600124598228E2B8F2C2275DE082275F1E771
:1048D6002275F23022E4F5F322E4F5F422E4F5F54C
:1048E6002275E2402243B2032275A903220600FF85
:1048F6000901A1018503953F750826FF00150009EA
:10490600019102953F26FF00150009018102C012A0
:1049160001000200000040350803FE5200010203B8
:104926000109022900010104803209040000020382
:10493600000005092111010001222200070581035B
:104946004000020705010340000A04030904011A96
:104956000353696C69636F6E204C616273000124B6
:104966000348494420746F205350492044657669B2
:104976006365000122033031323334353637383936
:1049860041424344454600011403436F6E6669671E
:1049960020233100012203437573746F6D20496E25
:1049A6007465726661636500FF4950FF4954FF49AB
:1049B60064FF4979FF498DFF499AFF4915FF492749
:0649C600FF49AE060000EF
:017DF0000092
:027DF20000038C
:087DF80001200005005355AA0B
:00000001FF
