:020000040000FA
:10000000020180022003FFFFFFFFFF022006FFFF27
:10001000FFFFFF022009FFFFFFFFFF02200CFFFF91
:10002000FFFFFF02200FFFFFFFFFFF022012FFFF75
:10003000FFFFFF022015FFFFFFFFFF022018FFFF59
:10004000FFFFFF02201BFFFFFFFFFF02201EFFFF3D
:10005000FFFFFF022021FFFFFFFFFF022024FFFF21
:10006000FFFFFF022027FFFFFFFFFF02202AFFFF05
:10007000FFFFFF02202DFFFFFFFFFF022030FFFFE9
:10008000FFFFFF022033FFFFFFFFFF022036FFFFCD
:10009000FFFFFF022039FFFFFFFFFF02203CFFFFB1
:1000A000FFFFFF02203FFFFFFFFFFFFFFFFFFFFFFC
:1000B000FFFFFFFFFFFFFFFFFFFFFFFFFFFFFFFF50
:1000C000FFFFFFFFFFFFFFFFFFFFFFFFFFFFFFFF40
:1000D000FFFFFFFFFFFFFFFFFFFFFFFFFFFFFFFF30
:1000E000FFFFFFFFFFFFFFFFFFFFFFFFFFFFFFFF20
:1000F000FFFFFFFFFFFFFFFFFFFFFF022060300158
:10010000FFFFFFFFFFFFFFFFFFFFFFFFFFFFFFFFFF
:10011000FFFFFFFFFFFFFFFFFFFFFFFFFFFFFFFFEF
:10012000FFFFFFFFFFFFFFFFFFFFFFFFFFFFFFFFDF
:10013000FFFFFFFFFFFFFFFFFFFFFFFFFFFFFFFFCF
:10014000FFFFFFFFFFFFFFFFFFFFFFFFFFFFFFFFBF
:10015000FFFFFFFFFFFFFFFFFFFFFFFFFFFFFFFFAF
:10016000FFFFFFFFFFFFFFFFFFFFFFFFFFFFFFFF9F
:10017000FFFFFFFFFFFFFFFFFFFFFFFFFFFFFFFF8F
:10018000E478607910900FF0E0F608A3D9FA78606F
:100190007910901C10E49386F0B5F064A308D9F5AB
:1001A000E490200093B40258E4907DFE93B455503F
:1001B000E4907DFF93B4AA48022000FFFFFFFFFFF9
:1001C000FFFFFFFFFFFFFFFFFFFFFFFFFFFFFFFF3F
:1001D000FFFFFFFFFFFFFFFFFFFFFFFFFFFFFFFF2F
:1001E000FFFFFFFFFFFFFFFFFFFFFFFFFFFFFFFF1F
:1001F000FFFFFFFFFFFFFFFFFFFFFFFFFFFFFFFF0F
:100200008002000275A800787FE4F6D8FD75812091
:1002100012130D53EFEF0220009000A9EEF0A3EFB0
:10022000F09000B1741EF0A3E4F0A374FDF0900010
:10023000A9E0FEA3E02406F582E43EF583E0FEA3F8
:10024000E0FFD39440EE9400400A7C007D407E00A5
:100250007F4080009000AFEEF0A3EFF09000A9E0A7
:10026000FEA3E0F5828E83E0FFC4135403705BEFBE
:10027000C4131313540130E0519000A9E0FEA3E031
:10028000F5828E83E0541F7041A3E0640660030290
:1002900008D29000A9A3E0F5828E83A3A3E0FEA379
:1002A000E07003EE640F60030208D27BFF7A1A79D4
:1002B000EE9000AFE0FFA3E09000B8CFF0A3EFF026
:1002C000C200E4FF120E6E0208CD9000A9E0FEA36A
:1002D000E0F5828E83E0FFC41354036402600302DE
:1002E00008D2EFC4131313540130E00302056B90DE
:1002F00000AFE07002A3E06026121A6B50FB900082
:10030000AFA3E0FD7B017A007906E4FF12144DE40F
:10031000FF121A77759611759740E59620E7FB90C6
:1003200000A9E0FEA3E0F5828E83A3E014607014C0
:1003300070030203B814700302040524F87003026A
:10034000046014700302049924FE70030204EC1488
:100350007003020546240F60030208CDE49000AB51
:10036000F0A3F09000ABE0FEA3E0FF2406F582745A
:10037000003EF583E0FD74462FF58274003EF58360
:10038000EDF09000ACE004F070069000ABE004F0FB
:100390009000ABE07004A3E0644070C70208CD9009
:1003A0000007E0FFEFFE900006E0FDEDFF9000008B
:1003B000EEF0A3EFF00208CD900000E0FEA3E0FF16
:1003C000C3EE941C50030208CD9000AFE0FCA3E004
:1003D000FDEF2DFFEE3CCF24FFCF34FFFED3EF9493
:1003E000FFEE947D40030208CD900000E0FEA3E004
:1003F000FF7B017A0079069000B9ECF0A3EDF012D2
:1004000016590208CD900000E0FEA3E0FFC3EE9471
:100410001C40369000AFE0FCA3E0FDEF2DFFEE3C6A
:10042000CF24FFCF34FFFED3EF94FFEE947D50191D
:10043000900000E0FEA3E0FF7B017A0079069000C7
:10044000B9ECF0A3EDF01216599000AFE0FEA3E076
:10045000FF900001E02FF0900000E03EF00208CD98
:10046000900007E0FFC36480949C50030208CDD342
:10047000EF648094FD40030208CDEF3395E0EFFE7A
:10048000900006E0FD3395E0FCEE4CFEEDFF9000A1
:1004900009E0FD1218710208CD900007E0FF3395C6
:1004A000E0EFFE900006E0FD3395E0FCEE4CFEED43
:1004B000FFC006C007900009E0FF3395E0EFFE9013
:1004C0000008E0FD3395E0FCEE4CFC90000BE0FFF3
:1004D0003395E0EFFE90000AE0FB3395E0FAEE4A38
:1004E000FAEBD007D0061215F30208CD900007E012
:1004F000FFC36480949C50030208CDD3EF648094C2
:10050000FD40030208CDEF3395E0EFFE900006E0DA
:10051000FD3395E0FCEE4CFEEDFF1218A0900007B5
:10052000E0642060030208CD747CF0E0FF3395E0C6
:10053000EFFE900006E0FD3395E0FCEE4CFEEDFF93
:100540001218A00208CD9000A9E0FEA3E02404F553
:1005500082E43EF583E0FEA3E0F47003EE640F60F6
:10056000030208CD9000BFF00208CD9000A9E0FE84
:10057000A3E0FFF5828E83E0FDC413131354012022
:10058000E0030208CDA3E014605C1470030207D9F5
:100590001470030207FC14700302087D2404600336
:1005A0000208D2E49000ABF0A3F09000ABE0FEA311
:1005B000E0FF2406F58274003EF583E0FD74462FCB
:1005C000F58274003EF583EDF09000ACE004F0702D
:1005D000069000ABE004F09000ABE07004A3E06490
:1005E0004070C70208B19000ABE4F0A37440F07B08
:1005F000017A0079469000B1E0FCA3E0FD9000B9DB
:10060000E4F0A37440F01216BEE49000ABF0A3F047
:100610009000ABE0FEA3E0FFC3943CEE9400401DCD
:10062000900082E0900002F0900083E0900003F0E0
:10063000900084E0900004F09000858070744A2F50
:10064000F58274003EF583E0F470769000ABE0FE36
:10065000A3E0244CF58274003EF583E0F4706290D0
:100660000046E0F4604E900048E0F460479000AB34
:10067000A3E0FF2446F58274003EF583E09000027B
:10068000F074472FF58274003EF583E0900003F08C
:100690009000ABA3E02448F58274003EF583E0901F
:1006A0000004F074492FF58274003EF583E0900059
:1006B00005F0801EE4900002F0A3F0A3F0A3F08008
:1006C000119000ACE02404F09000ABE03400F002A4
:1006D0000610900000E0FEA3E0900046F0EEA3F0CC
:1006E000E4A3F0A37420F0A374FFF0A3747DF0E4FE
:1006F000A3F0A3741CF0E4A3F0A3F0900002E09038
:100700000050F0900003E0900051F0900004E09061
:100710000052F0900005E0900053F0E4A3F0A374C1
:1007200002F0900000E0641C7002A3E0707590007D
:10073000ABF0A3F09000ABE0FEA3E0FF24F0F58265
:10074000740F3EF583E0FD74562FF58274003EF57C
:1007500083EDF09000ACE004F070069000ABE00494
:10076000F09000ABE07004A3E0641070C7E4900068
:10077000ABF0A3F09000ABE0FEA3E0FFC39420EE4B
:10078000940040030208B174662FF58274003EF5B0
:1007900083E4F09000ACE004F070D99000ABE0048A
:1007A000F080D1E49000ABF0A3F09000ABE0FEA3AA
:1007B000E0FFC39430EE940040030208B174562F5A
:1007C000F58274003EF583E4F09000ACE004F07034
:1007D000D99000ABE004F080D17B017A007946909B
:1007E0000000E0FCA3E0FD9000AFE0FFA3E090007C
:1007F000B9CFF0A3EFF01216BE0208B1900000E0EE
:10080000FEA3E0FFC3EE941C403F9000AFE0FCA3CA
:10081000E0FDEF2DFFEE3CCF24FFCF34FFFED3EF02
:1008200094FFEE947D50227B017A0079469000007F
:10083000E0FCA3E0FD9000AFE0FFA3E09000B9CFA3
:10084000F0A3EFF01216BE8054E49000ABF0A3F0DA
:100850009000ABE0FEA3E0FFC39440EE9400503D57
:1008600074462FF58274003EF58374FFF09000AC5F
:10087000E004F070DB9000ABE004F080D37B017A01
:10088000007946900000E0FCA3E0FD9000AFE0FF9F
:10089000A3E09000B9CFF0A3EFF01216BE9000AF26
:1008A000E0FEA3E0FF900001E02FF0900000E03EAA
:1008B000F07B017A0079469000AFE0FFA3E0900062
:1008C000B8CFF0A3EFF0C200E4FF120E6EE4900088
:1008D000B3F09000B3E0FF22E4FDFC9000AE74FFA3
:1008E000F090008AE064806003020A2990008CE0A6
:1008F000FAA3E09000AAF0EAFFE46003020A00EF26
:1009000024FE603A14606F24026003020A00900023
:10091000AAE06003020A0090009AE0F9A3E0FAA3BB
:10092000E09000ABC9F0A3EAF0A3E9F090009AE0F0
:10093000FBA3A3E0F9120B857C00FD020A009000E6
:10094000AAE06003020A0090009DE0F9A3E0FAA388
:10095000E09000ABC9F0A3EAF0A3E9F090009DE0BD
:10096000FBA3A3E0F9900002120C09FAE5F0FFEAFC
:10097000FCEFFD020A009000A0E0FBA3E0FAA3E078
:10098000F99000AAE0FF75F003A4F58285F08312C8
:100990000C619000ABEBF0A3EAF0A3E9F0EF700C70
:1009A000FC7D04900092E05480F0805490008EE032
:1009B000FEA3E0FF4E600AEF64097003EE6404706A
:1009C0003F900087E0FF9000AAE0C39F5032A3E071
:1009D000FBA3E0FAA3E0F9900001120B9E7C00FD5E
:1009E000120B85547FFF900092E054804FFFF090EF
:1009F00000ACE475F001120BDDEF4480900092F042
:100A0000ED4C6025900090E0FEA3E0FFC39DEE9CBE
:100A10005004AC06AD079000ABE0FBA3E0FAA3E006
:100A2000F91218F9E49000AEF09000AEE0FF2290C9
:100A30000099E0139200900096E0FEA3E0FFC394BB
:100A400040EE940040047F4080009000A9EFF090B9
:100A50000096E0FEA3E0FFD39440EE940050047FA4
:100A60004080009000ACEFF09000A9E0A3F090006F
:100A700092E0FF547F64017077EF30E72AA3E0FB38
:100A8000A3E0FAA3E0F9C2017D02E4FF1211BA90DB
:100A90000094E475F002120BDD9000A9E024FEF052
:100AA000900092E0547FF0E49000ABF09000A9E059
:100AB000C313FF9000ABE0C39F505A900093E0FB3C
:100AC000A3E0FAA3E0F9C2017D01E4FF1211BA909C
:100AD0000094E475F001120BDD7BFF7A1B7991C263
:100AE000017D01E4FF1211BA9000ABE004F080BC7C
:100AF0009000A9E0FD900093E0FBA3E0FAA3E0F9E9
:100B0000C201E4FF1211BA9000A9E0FF900094E442
:100B10008FF0120BDD900099E054FBF09000AAE0FA
:100B2000FFC3900097E09FFF900096E09400FEF0D6
:100B3000A3EFF04E70249000ACE06440601C75960A
:100B40001175970AE59620E7FB9000987401F0E490
:100B5000900092F0900099F0800B759611759702B5
:100B6000E59620E7FB30001C9000AAE0FB7A00909D
:100B70000096E0FFA3E09000B1CFF0A3EFF0E4FD1A
:100B8000FF121A1622BB010689828A83E0225002D4
:100B9000E722BBFE02E32289828A83E49322BB011F
:100BA0000CE58229F582E5833AF583E0225006E9D7
:100BB0002582F8E622BBFE06E92582F8E222E582DC
:100BC00029F582E5833AF583E49322BB0106898205
:100BD0008A83F0225002F722BBFE01F322C5F0F80F
:100BE000A3E028F0C5F0F8E582158270021583E0D5
:100BF00038F022A3F8E0C5F025F0F0E58215827008
:100C0000021583E0C838F0E822BB0110E58229F51F
:100C100082E5833AF583E0F5F0A3E0225009E92567
:100C200082F886F008E622BBFE0AE92582F8E2F5A2
:100C3000F008E222E5832AF583E993F5F0A3E9932E
:100C400022BB010789828A83020C9A5005E9F802C7
:100C50000C91BBFE05E9F8020CA389828A83020C81
:100C6000ACBB010DE58229F582E5833AF583020CE0
:100C70009A5007E92582F8020C91BBFE07E925820C
:100C8000F8020CA3E58229F582E5833AF583020C8C
:100C9000ACE6FB08E6FA08E6F922E0FBA3E0FAA3DB
:100CA000E0F922E2FB08E2FA08E2F922E493FB749D
:100CB0000193FA740293F9229000AA74FFF0900055
:100CC0008CE0FCA3E0FDEC6003020DA690008AE03E
:100CD000541F6003020DA6900090E07002A3E06034
:100CE00003020DA690008EE07002A3E06003020DE7
:100CF000A6900088E064047057ED4C602090009D41
:100D0000E0FBA3E0FAA3E0F9900005120B9EFF9030
:100D1000008CE07003A3E06F6003020DA690008CCE
:100D2000A3E0900086F090009DE0FBA3E0FAA3E032
:100D3000F9900005120B9EFF90008CE0B4000FA309
:100D4000E0B5070AD200121AC97F06121840805176
:100D5000900088E06406704E90008CE0FEA3E0FFF7
:100D60004E601C90009DE0FBA3E0FAA3E0F9900028
:100D700005120B9EFD7C00EFB5052BECB506279008
:100D8000008CA3E0900086F090008CE07002A3E05D
:100D9000700A7F041218401219788005C200121AD6
:100DA000C9E49000AAF09000AAE0FF229000A6EB10
:100DB000F0A3EAF0A3E9F053E6FDE4FF74862FF513
:100DC00082E43400F583E4F00FEFB41DEF9000A649
:100DD000E0FBA3E0FAA3E0F9120C4190009AEBF0DB
:100DE000A3EAF0A3E9F09000A6E0FBA3E0FAA3E0F9
:100DF000F9900003120C6190009DEBF0A3EAF0A3C0
:100E0000E9F09000A6E0FBA3E0FAA3E0F990000669
:100E1000120C619000A0EBF0A3EAF0A3E9F09000BF
:100E2000A6E0FBA3E0FAA3E0F9900009120B9E9064
:100E30000087F053A98F43D720759601759708E571
:100E40009620E7FB75960B75970FE59620E7FBE577
:100E5000C9A2E690008850057403F080037401F085
:100E6000759601759701E59620E7FB7F00229000BB
:100E7000B5EBF0A3EAF0A3E9F09000B4EFF0601254
:100E800080007BFF7A17791E7D7E7C02121AC77F55
:100E9000FC229000B4E0FE600B900088E0640660E5
:100EA000037FF722EE75F007A42493F9740035F060
:100EB000FEAF01F583EF2405F582E43583F583E089
:100EC000FD64016009ED7FFEB405027FFB22900006
:100ED000B5E0F9A3E0FAA3E08F828E83C9F0A3EA1C
:100EE000F0A3E9F09000B8E0FDA3E08F828E83A329
:100EF000A3A3CDF0A3EDF0EF2405F582E43EF58346
:100F00007402F0A200E4335401FDEF2406F582E4FC
:100F10003EF583E054FE4DF09000B4E07007900081
:100F200099E04404F07F0022E4F5BFF5A8F5E6F56A
:100F3000E753B2FC75A902F5D9F5D8F5DAF5E175F4
:100F4000E240F5E3121AC075F1FF75F2FF75F3FF89
:100F500075F4FFE4F5A4F5A5F5A6F5A77580FF7572
:100F600090FF75A0FF75B0FF75D4FF75D5FF75D6DE
:100F7000FF75DFFF9000A4F0A3F09000A5E004F05F
:100F800070069000A4E004F09000A4E0B4FFEBA38E
:100F9000E0B4FEE67BFF7A1B7987120DAC121A5E75
:100FA0009000BF7401F09000BFE06005121AC48089
:100FB000F5E49000A4F0A3F0121AC49000A5E00498
:100FC000F070069000A4E004F0C39000A4E0940147
:100FD00040E6121AC075EF107F0022E4FF121A7764
:100FE000121A444005121A37501F759611E4F597EE
:100FF000E59620E7FB759611759780E59620E7FB4F
:101000009000987401F0E4A3F0121A6B5061900004
:1010100099E0FF30E3028054900098E0640170484A
:10102000900092F01211207E007F8A120219BFFDFB
:101030001590008AE0FFC4135403700512124C800F
:101040002E1219AB802990008AE020E722900098A8
:10105000E06403601A900090E07002A3E0601090DA
:101060000099E04408F08007900099E04402F09075
:101070000098E0B40208121A514003120A2F22907D
:1010800000AA74FFF0900090E07004A3E064026096
:101090000302111A90008CE07002A3E0707C9000B3
:1010A0008AE0FF30E774900088E0FEC39404406A51
:1010B000E49000BDF0A3F0EF541F14601D146025F0
:1010C0002402704490008EE07002A3E0703A900019
:1010D000BDE04401F0A3E0F0801CC390008EE094DA
:1010E000005025801190008EE0FCA3E0FD547F4C61
:1010F000700BEEB40407E49000AAF0800B90008817
:10110000E0B406047E00AF059000AAE0700C7B01FD
:101110007A0079BD7D02FC1218F99000AAE0FF2246
:101120007E007F8A9000A9EEF0A3EFF0AA06F97B7B
:10113000017D08E4FF12144D759611759740E596F0
:1011400020E7FB9000A9E0FEA3E0F5828E83A3A335
:10115000E0FCA3E0FAECFFEAFE9000A9E0FCA3E0CB
:10116000FDF5828C83A3A3EEF0A3EFF0ED2404F54C
:1011700082E43CF583E0FCA3E0FAECFFEAFE900099
:10118000A9E0FCA3E0FD2404F582E43CF583EEF045
:10119000A3EFF0ED2406F582E43CF583E0FCA3E048
:1011A000FAECFFEAFE9000A9E0FCA3E02406F58239
:1011B000E43CF583EEF0A3EFF0229000ADEFF0A356
:1011C000EDF0A3EBF0A3EAF0A3E9F0E59620E7FB4E
:1011D0009000ADE04420F5969000AFE01460192433
:1011E0000360281460341470429000AEE0FFA3A3A3
:1011F000A3E0FD1219EE80339000AEE0FFA3A3E060
:10120000FAA3E0AC02FD1219D880209000AEE0FFF6
:10121000A3A3A3E0FD121A0280119000AEE0FFA389
:10122000A3E0FAA3E0AC02FD12199430011D900076
:10123000ADE0FFD394004013121A77759691E596AE
:1012400020E7FB439701E59620E7FB22E49000A905
:10125000F090008BE0B40C00505D901261F82828EB
:101260007302128502128A0212B702128F0212B79B
:101270000212940212990212B702129E0212A302E3
:1012800012A80212AD12107F80261215258021129D
:10129000158C801C1213D280171208D880121217D6
:1012A00073800D120CB880081217C7800312180B38
:1012B0009000A9EFF080069000A974FFF0E4FF12FF
:1012C0001A779000A9E0B4FF031219AB9000A9E0CF
:1012D000FF22020F28E493A3F8E493A34003F680CF
:1012E00001F208DFF48029E493A3F85407240CC822
:1012F000C333C4540F4420C8834004F456800146CD
:10130000F6DFE4800B0102040810204080901AAE42
:10131000E47E019360BCA3FF543F30E509541FFEF7
:10132000E493A360010ECF54C025E060A840B8E468
:1013300093A3FAE493A3F8E493A3C8C582C8CAC5EB
:1013400083CAF0A3C8C582C8CAC583CADFE9DEE77D
:1013500080BE121A829000A6EFF0121A8D9000A79C
:10136000EFF0121A989000A6E07007A3E07003EF68
:10137000605F121AA39000A8EFF09000A6E0FC3086
:10138000E322900099E0FE30E108900098E06403C9
:10139000600BEE30E20E900098E0B402079000A7D8
:1013A000E04401F0EC30E2031218CF9000A6E030E8
:1013B000E103121AB89000A6E030E003121A289058
:1013C00000A7E030E003120FDB9000A8E0FF121A44
:1013D00077229000AA74FFF090008CE0FEA3E0FF5B
:1013E000C39480EE9400505F900090E07002A3E000
:1013F000705590008AE0541F704D90008EE070028E
:10140000A3E07043900088E0B4030BEF4E601D7FB3
:10141000041218408016900088E0B4041490008CE8
:10142000E07002A3E070057F03121840E49000AA68
:10143000F09000AAE07010F59690008CA3E0448034
:10144000F597E59620E7FB9000AAE0FF229000B414
:10145000EFF09000B6EBF0A3EAF0A3E9F09000B54E
:10146000EDF0D394004054E59620E7FB9000B4E003
:10147000FE44E0F5969000B6E0146017240360295E
:1014800024FE70379000B5E0FFA3A3A3E0FDAB06F8
:1014900002195B9000B5E0FFA3A3E0FAA3E0AC0261
:1014A000FD9000B4E0FB02191B9000B5E0FFA3A380
:1014B000A3E0FD9000B4E0FB12193C229000AEEFD7
:1014C000F0E4A3F0EF60099000AEE0C39401401592
:1014D0007BFF7A17791E7D4A7C00121AC79000AFF5
:1014E00074FCF0803A9000AEE075F007A42493F904
:1014F000740035F0FEAF01F583EF2405F582E43585
:1015000083F583E064016017EF2405F582E43EF57E
:10151000837401F0EF2406F582E43EF583E4F09055
:1015200000AFE0FF229000AA74FFF0900090E070FE
:1015300002A3E0705190008AE0541F24FE7047908F
:10154000008CE07002A3E0703D90008EE0FEA3E00E
:10155000547FFF4E7010900088E0C394044007E46D
:101560009000AAF08020C3EF9401EE9400501790F1
:101570000088E0B40610E49000AAF090008EA3E08A
:10158000547FFF121A779000AAE0FF229000AA74FD
:10159000FFF0900090E07002A3E0705190008AE0AC
:1015A000541F24FE704790008EE0FEA3E0547FFF9E
:1015B0004E7010900088E0C394044007E49000AAA5
:1015C000F0802AC3EF9401EE9400502190008CE04B
:1015D0007002A3E07017900088E0B40610E4900059
:1015E000AAF090008EA3E0547FFF121A779000AA11
:1015F000E0FF229000B4EEF0A3EFF0A3ECF0A3ED37
:10160000F0A3EAF0A3EBF0E4A3F0A3F09000B8E0BD
:10161000FEA3E0FFA3E0FCA3E0FDC39FEC9E5038D7
:101620009000B7E02DFF9000B6E03CFE1219C2AD6D
:10163000079000BAE0FEA3E0FF9000B5E02FFF9016
:1016400000B4E03EFE1218719000BBE004F070BCE4
:101650009000BAE004F080B4229000B6EBF0A3EA68
:10166000F0A3E9F09000B4EEF0A3EFF09000BBEE31
:10167000F0A3EFF09000B9E0FEA3E0FF9000B5E02A
:101680002FFD9000B4E03EFC9000BBE0FEA3E0FF25
:10169000C39DEE9C50279000B6E0FBA3E475F001DB
:1016A000120BF3A9F0FA120B85FD1218719000BC11
:1016B000E004F070BF9000BBE004F080B72290001F
:1016C000B4EBF0A3EAF0A3E9F0A3ECF0A3EDF0E4AF
:1016D0009000BBF0A3F09000B9E0FEA3E0FFA3E010
:1016E000FCA3E0FDC39FEC9E50339000B8E02DFFBB
:1016F0009000B7E03CFE1219C29000B4E0FBA3E4F6
:1017000075F001120BF3A9F0FAEF120BCB9000BCAD
:10171000E004F070C19000BBE004F080B922433ACD
:101720005C55736572735C73696D6F6E5C53696D44
:10173000706C696369747953747564696F5C76332E
:101740005F776F726B73706163655C5553422D42B6
:101750004C2D36344B5C6C69625C65666D385F7528
:1017600073625C7372635C65666D385F7573626427
:101770002E63007FFF90008EE07002A3E070479020
:10178000008CE07002A3E0703D900090E07004A334
:10179000E06401703190008AE0FE30E729541F7048
:1017A00025900088E0B404087BFF7A1B7991800DB6
:1017B000900088E0B4060F7B017A0079867D017C79
:1017C000001218F9E4FF2290008EE0FEA3E0FF7DF6
:1017D000FFC3EE94005031A3E07004A3E0640170F5
:1017E0002790008CE07002A3E0701D90008AE0B4A6
:1017F0008116900088E0B4060F7BFF7A1B79917DFB
:10180000017C001218F9E4FDAF05227FFF90008EE5
:10181000A3E0FE90008CA3E0FDEEC3940050209066
:101820000088E0B40619900090E07002A3E0700F09
:10183000ED700C90008AE0541FFEBE0102E4FF220E
:101840009000ABEFF0900088E09000ACF0C39405FE
:10185000400B9000ABE0940550031219789000AB58
:10186000E0FFB40506A3E0900089F0900088EFF057
:1018700022A2AF9200C2AF75FFA075EF028E088F53
:101880000975B7A575B7F1438F0175FFA075EF0214
:10189000850982850883EDF0538FFEA20092AF2266
:1018A000A2AF9200C2AF75FF8075EF028E088F095C
:1018B00075B7A575B7F1438F0375FF8075EF028586
:1018C0000982850883E4F0538FFCA20092AF229036
:1018D00000987401F0F596F597E59620E7FB75966C
:1018E0000B75970FE59620E7FBE5C9A2E650047F4C
:1018F0000380027F0112184022900098E0B4011A80
:10190000900093EBF0A3EAF0A3E9F0AF05A3ECF0AD
:10191000A3EFF0A37402F0E4A3F0228D828C831F66
:10192000EF600BE59620E7FBE597F0A380F1E596E5
:1019300020E7FBEB4420F596E597F022A8051FEF82
:10194000600BE59620E7FBE597F20880F1E596202D
:10195000E7FBEB4420F596E597F222A8051FEF6020
:101960000AE59620E7FBA6970880F2E59620E7FBBC
:10197000EB4420F596A697229000AD7401F09000FC
:10198000ADE0FFC39401500B1214BC9000ADE00415
:10199000F080EB228D828C83AE071FEE600CE59603
:1019A00020E7FBE493F597A380EE22E4FF121A7779
:1019B0009000987405F0759611759760E59620E78C
:1019C000FB22A2AF9200C2AF8E088F098F828E8356
:1019D000E493FFA20092AF228D828C83AE071FEEAC
:1019E000600BE59620E7FBE0F597A380EF22A805C2
:1019F000AE071FEE600BE59620E7FBE6F597088043
:101A0000EF22A805AE071FEE600BE59620E7FBE28C
:101A1000F5970880EF229000ADEFF0A3EDF0A3EA78
:101A2000F0A3EBF0E4FEFF22900088E0C3940240B4
:101A3000057F0512184022759691E59620E7FBE593
:101A400097A2E422759691E59620E7FBE597A2E23E
:101A500022759691E59620E7FBE597A2E12290009A
:101A6000987401F043D78043D74022759691E5964C
:101A700020E7FBE597132275960E8F97E59620E7F2
:101A8000FB22759686E59620E7FBAF972275968236
:101A9000E59620E7FBAF9722759684E59620E7FB55
:101AA000AF972275968EE59620E7FBAF972242000E
:101AB0000000004100BF0000900089E0FF021840D4
:101AC00053D77F2202135280FE221201010211001D
:101AD0000040350871FF00020102030109021200F3
:101AE0000101048032090400000011000000050F0C
:101AF0001900011410040005A04F5A082149BBB277
:101B0000E30E74FF0894AD0403090401220341634A
:101B100074696F6E205374617220546563680001AC
:101B200018035553422055706772616465000104C3
:101B300003300001180355534220557067726164E9
:101B40006500013C03687474703A2F2F7777772E05
:101B5000616374696F6E737461722E636F6D2E743E
:101B6000772F000118035553422055706772616446
:101B70006500FF1B07FF1B0BFF1B1FFF1B2EFF1B1F
:101B800033FF1B42FF1B63FF1ACAFF1ADCFF1B72E5
:031B90000700004B
:00000001FF
