:020000040000FA
:10200000022066E5A1A2E69203E5F8540C24FF92B3
:1020100000D204222202386A80FE220233EA7FFFC5
:10202000785AE61846703D18E618467037785CE630
:1020300064011846702E7855E6FE30E727541F706D
:10204000237853E6B404087BFF7A4879D0800C7873
:1020500053E6B4060F7B007A0079517D017C0012B3
:102060004575E4FF222253D9BF787FE4F6D8FD7589
:10207000817B023D938A308B31ED60030229A6EF0C
:10208000600764026003022993900179E0603014D4
:10209000603024F2B4070040030229939020AA750F
:1020A000F003A4C58325F0C583730228F5022993A4
:1020B00002212E02216002231D0226B70226D2022F
:1020C000237F7FFB7E7D1245D090017AEFF07FFA6F
:1020D0001245D090017BEFF07FFD1245D090017C3E
:1020E000EFF07FFC1245D090017DEFF07FF91245B3
:1020F000D090017EEFF07FF81245D090017FEFF095
:10210000A374FFF0A3F0A3F0A3F07FF01245D090EA
:102110000184EFF0A374FFF07FF31245D0900186A5
:10212000EFF07FF21245D0900187EF0228EBE5F83F
:1021300020E00643A40D43F801E4F534F535741EA0
:102140002535F58274003534F583E4F00535E53541
:1021500070020534643E453470E41237360222348E
:10216000E5F820E00643A40D43F80190017BE0244C
:10217000FCFF90017AE06F600302223D90017CE059
:102180006402600302223DF534F53574782535F597
:102190008274013534F583E0FF743C2535F8A607D9
:1021A0000535E535700205346408453470DD1246A6
:1021B000D3124537EF5403FFBF02F6E4F534F5358B
:1021C000743C2535F8E6FF74782535F582740135C1
:1021D00034F583EFF00535E53570020534640845C4
:1021E0003470DD123FF5124537EF540370F8E53FC8
:1021F00024FC90017AF0A37404F0A314F0A3E54149
:10220000F0A3E542F0A3E543F0123736E4F534F5E8
:1022100035743C2535F8E6FF74782535F582740170
:102220003534F583EFF00535E53570020534640883
:10223000453470DD9000007411F002299390017A0A
:10224000E0700302231790017CE064206003022306
:1022500017F534F53574782535F58274013534F584
:1022600083E0FF743C2535F8A6070535E535700297
:1022700005346408453470DD90017AE0FFD3941E84
:10228000400875360075371E80057536008F37900B
:10229000017DE0F538A3E0F539E4F534F535C3E523
:1022A000359537E534953650441246D3124537EF0D
:1022B0005403FFBF02F6900179E53DF0A3E53EF03F
:1022C000A3E53FF0E540123FE8E539B4F0070538F3
:1022D000E4F539800674102539F539124537EF5485
:1022E0000370F80535E53570B5053480B1E4F53493
:1022F000F535743C2535F8E6FF74782535F582749C
:10230000013534F583EFF00535E5357002053464A9
:1023100008453470DD8068123FF50228B690017AD6
:10232000E0FD6490705CA3E0FF700CA3E590F0907A
:1023300000007412F08048E5A054F064407029EF6A
:102340006408702490017CE0FF70054390088007CA
:10235000EFB408035390F712466D90017BE055905F
:10236000A3F0E06408F0801790017BE05590FFA394
:10237000E06F629012466D90017BE05590A3F002F1
:1023800028B6ED64F2702590017BE0FF7006A3E5AE
:10239000F202265EE5F25FFF90017CE06F62F212CE
:1023A000466D90017BE055F1A302265E90017AE034
:1023B000FD64A57022A3E0FF7005A3E5A58015E5E7
:1023C000A55FFF90017CE06F62A512466D90017BD6
:1023D000E055A4A302265EED6480702490017BE0AA
:1023E000FF7005A3E5808015E5805FFF90017CE02C
:1023F0006F628012466D90017BE05580A302265EDD
:1024000090017AE0FD64F17022A3E0FF7005A3E57E
:10241000F18015E5F15FFF90017CE06F62F11246FB
:102420006D90017BE055F1A302265EED64A470245B
:1024300090017BE0FF7005A3E5A48015E5A45FFF94
:1024400090017CE06F62A412466D90017BE055A480
:10245000A302265E90017AE0FD64A07022A3E0FF53
:102460007005A3E5A08015E5A05FFF90017CE06FFB
:1024700062A012466D90017BE055A0A302265EED9E
:1024800064F3702490017BE0FF7005A3E5F38015F1
:10249000E5F35FFF90017CE06F62F312466D9001FF
:1024A0007BE055F3A302265E90017AE0FD64A670FE
:1024B00022A3E0FF7005A3E5A68015E5A65FFF90C7
:1024C000017CE06F62A612466D90017BE055A6A3E9
:1024D00002265EED64BC702490017BE0FF7005A3D2
:1024E000E5BC8015E5BC5FFF90017CE06F62BC122B
:1024F000466D90017BE055BCA302265E90017AE018
:10250000FD64BE7022A3E0FF7005A3E5BE8015E563
:10251000BE5FFF90017CE06F62BE12466D90017B52
:10252000E055BEA302265EED64BD702490017BE001
:10253000FF7005A3E5BD8015E5BD5FFF90017CE060
:102540006F62BD12466D90017BE055BDA302265E11
:1025500090017AE0FD64C47022A3E0FF7005A3E55A
:10256000C48015E5C45FFF90017CE06F62C4124631
:102570006D90017BE055C4A302265EED64C3702418
:1025800090017BE0FF7005A3E5C38015E5C35FFF05
:1025900090017CE06F62C312466D90017BE055C3F1
:1025A000A302265E90017AE0FD64C67022A3E0FFDC
:1025B0007005A3E5C68015E5C65FFF90017CE06F5E
:1025C00062C612466D90017BE055C6A302265EED01
:1025D00064C5702390017BE0FF7005A3E5C58015FD
:1025E000E5C55FFF90017CE06F62C512466D90010A
:1025F0007BE055C5A3806790017AE0FD64E8703800
:10260000A3E0FF7003A3802CE5E85FFF90017CE06E
:102610006F62E812466D90017BE055E8A3F0124628
:102620006D90017EE5BEF0A3E5BDF053E8DF1246F4
:102630006D90017DE5E8807BED64BB702390017BAC
:10264000E0FF7005A3E5BB8015E5BB5FFF90017C53
:10265000E06F62BB12466D90017BE055BBA38053D7
:1026600090017AE0FD64BA7021A3E0FF7005A3E554
:10267000BA8015E5BA5FFF90017CE06F62BA12463E
:102680006D90017BE055BAA38029ED64D16003020F
:10269000299390017BE0FF7005A3E5D18015E5D17A
:1026A0005FFF90017CE06F62D112466D90017BE08C
:1026B00055D1A3F00228EC75C1D012466D90017B74
:1026C000E030E005123DD8800312423F53C1EF02D3
:1026D00028EC90017AE0FF70030228B8A3E06F6055
:1026E000030228B8E5F820E00643A40D43F801E40E
:1026F000F534F53574782535F58274013534F58374
:10270000E0FF743C2535F8A6070535E53570020570
:10271000346408453470DD90017AE0FFD3941E40A4
:102720000875360075371E80057536008F379001A5
:102730007EE0F538A3E0F539E4F534F535C3E53549
:102740009537E534953650411246D3124537EF544C
:1027500003FFBF02F6E4900179F0A37404F0A3F044
:102760007420123FE8E539B4F0070538E4F5398004
:102770000674102539F539124537EF540370F80502
:1027800035E53570B8053480B490017AE0FFD39414
:102790001E400875360075371E80057536008F3768
:1027A000E537AE367805C333CE33CED8F9F5378E5C
:1027B0003685403A85413B854238854339E4F534D6
:1027C000F535C3E5359537E5349536400302288E57
:1027D00090017B7404F0A314F0A3E53AF0A3E53B69
:1027E000F0E53530E006A37480F08005E490017FC9
:1027F000F0123AB9124537EF540370F81246D3126B
:102800004537EF5403FFBF02F690017C7402F0A33A
:10281000E538F0A3E539F0E53530E006A37480F043
:102820008005E490017FF0123CD7124537EF540346
:1028300070F890017A7480F0A37404F0A314F0A3EC
:10284000E538F0A3E539F0E53530E006A37480F013
:102850008005E490017FF0123AB9124537EF540336
:1028600070F8E53530E01CE539B4FF070538E4F5CC
:102870003980020539E53BB4FF07053AE4F53B80B2
:1028800002053B0535E535700205340227C2E4F543
:1028900034F535743C2535F8E6FF74782535F58236
:1028A00074013534F583EFF00535E53570020534F4
:1028B0006408453470DD8034900138E0900179F08F
:1028C000A374FEF090013AE090017BF090013BE0B0
:1028D00090017CF090013CE090017DF090013DE0A2
:1028E00090017EF090013EE090017FF09000007436
:1028F00012F002299390017AE06455600302299353
:10290000A3E064AA60030229937F817E1E1245D052
:10291000AD07EDF46003ED70027D07E4F536F537A1
:10292000EDFFC3E5379FE53694005023E4F534F519
:10293000351246C40535E53570020534C394FFE50C
:1029400034940040EC0537E53770D5053680D1E486
:10295000F534F5351246C40535E53570020534C346
:102960009441E534940040EC53D77FE4F534F535D9
:102970001246C40535E53570020534C394FFE534CD
:10298000940040EC7BFF7A0279008B138A1489153E
:10299000122A9A7B017A017978754800754940D2EC
:1029A000077F02123999E4FEFF22BB010689828A61
:1029B00083E0225002E722BBFE02E32289828A835F
:1029C000E49322BB010CE58229F582E5833AF58385
:1029D000E0225006E92582F8E622BBFE06E92582C0
:1029E000F8E222E58229F582E5833AF583E4932231
:1029F000F8BB010DE58229F582E5833AF583E8F01D
:102A0000225006E92582C8F622BBFE05E92582C8C8
:102A1000F222BB0110E58229F582E5833AF583E0D5
:102A2000F5F0A3E0225009E92582F886F008E622B5
:102A3000BBFE0AE92582F8E2F5F008E222E5832AE6
:102A4000F583E993F5F0A3E99322BB010789828A14
:102A500083022AA95005E9F8022AA0BBFE05E9F87D
:102A6000022AB289828A83022ABBBB010DE5822930
:102A7000F582E5833AF583022AA95007E92582F811
:102A8000022AA0BBFE07E92582F8022AB2E58229C4
:102A9000F582E5833AF583022ABB8A838982E4734F
:102AA000E6FB08E6FA08E6F922E0FBA3E0FAA3E079
:102AB000F922E2FB08E2FA08E2F922E493FB74014E
:102AC00093FA740293F9228F2B752CFDA807E6FF69
:102AD000C41354036003022B86EFC4131313540171
:102AE00020E003022B86E6541F64016003022B865C
:102AF000E804F8E624FA6003022BDEE52B2402F951
:102B0000E764227038E52B2404F8E6FE08E660034B
:102B1000022BDEEE6003022BDE7BFF7A4779F9E5BC
:102B20002B2406F8E6FE08E6FFC374229FE49E50BD
:102B30000A7C007D227E007F2280458043E52B2495
:102B400002F9E764216003022BDEE52B2404F8E69A
:102B5000FE08E66003022BDEEE6003022BDE7BFF45
:102B60007A48793FE52B2406F8E6FE08E6FFC374B1
:102B7000099FE49E500A7C007D097E007F09800049
:102B80008E318F328039A82BE6FFC41354036401C1
:102B9000704CEF541F64017045E804F8E624F760B8
:102BA0002724087039E52B2402F808E66403702E08
:102BB0001240AD7B017A017937753100753240C220
:102BC00006E4FF12326C80137B017A017978754834
:102BD00000754940D207E4FF123999E4F52CAF2C77
:102BE00022900017E0241EF582E43400AD82F52225
:102BF0008D2375240175253C9001377403F09001F5
:102C000079E0900138F090017AE0900139F090017C
:102C10007BE090013AF090017CE0FE90013BF06493
:102C2000026008EE64036003022CAF90017DE0FEB9
:102C30000525E525AC247002052414F5828C83EE6D
:102C4000F090017EE0FE0525E525AC247002052408
:102C500014F5828C83EEF090017FE0FE0525E525DA
:102C6000AC247002052414F5828C83EEF0E4FF0599
:102C700023E523AC227002052214F5828C83E0FE4A
:102C80000525E525AC247002052414F5828C83EE1D
:102C9000F0741E2FF582E43400F583E4F074782F8D
:102CA000F582E43401F583E4F00FBF38C28040E4DC
:102CB000FF0523E523AC227002052214F5828C83E4
:102CC000E0FE0525E525AC247002052414F5828C70
:102CD00083EEF0741E2FF582E43400F583E4F07483
:102CE000782FF582E43401F583E4F00FBF3BC27521
:102CF0000F4022E4FDFC7530FF7855E664806003E8
:102D0000022E007857E6FE08E6F52CEEFFE460039D
:102D1000022DDEEF24FE602A14604E2402600302BE
:102D20002DDEE52C6003022DDE7873860308E6FABB
:102D300008E6F98B2D8A2EF52F1229AA7C00FD02B8
:102D40002DDEE52C6003022DDE7876860308E6FA98
:102D500008E6F98B2D8A2EF52F900002122A12FA1E
:102D6000E5F0FFEAFCEFFD80757879860308E6FA66
:102D700008E6F975F003E52CA4F58285F083122AA4
:102D80006A8B2D8A2E892FE52C700BFC7D04785DD3
:102D9000E65480F680487859E6FE08E6FF4E600A61
:102DA000EF64097003EE64047034E52CC378529626
:102DB000502CAB2DAA2EA92F9000011229C37C0004
:102DC000FD1229AA547FFF785DE654804FFFF67408
:102DD00001252FF52FE4352EF52EEF4480F6ED4C2E
:102DE000601E785BE6FE08E6FFD3ED9FEC9E400494
:102DF000AC06AD07AB2DAA2EA92F124575E4F53010
:102E0000AF30227864E61392067861E6FE08E6FFAA
:102E1000C39440EE940040047F4080008F2B852BAC
:102E20002C785DE6FF547F64017068EF30E7260878
:102E3000860308E6FA08E6F9C2087D02E4FF123EBE
:102E4000B17860740226F618E436F6152B152B7847
:102E50005DE6547FF6E4F52DE52BC313FFE52DC3A6
:102E60009F504D785E860308E6FA08E6F9C2087DB1
:102E700001E4FF123EB17860740126F618E436F6DC
:102E80007BFF7A4879D0C2087D01E4FF123EB1058C
:102E90002D80C5785E860308E6FA08E6F9C208AD1B
:102EA0002BE4FF123EB17860E52B26F618E436F6E7
:102EB0007864E654FBF6C37862E6952CFF18E69436
:102EC00000FEF608EFF64E701EE52C6440601875A3
:102ED000961175970AE59620E7FB78637601E4780A
:102EE0005DF67864F6800B759611759702E596206D
:102EF000E7FB300614E52CFB7A007861E6F5320832
:102F0000E6F533E4FDFF122075227B107A10E4F918
:102F1000FDFCEDAE047802C333CE33CED8F92400E5
:102F2000FFEE341EFE1245D0BFFF04AB05800B0D33
:102F3000BD00010CED64104C70D8E4F9EBC39410A3
:102F4000503FEBC394014039EB14FA75F004A4240C
:102F5000001245CAEF64057028EA75F004A4240144
:102F60001245CAEF701BEA75F004A424021245CA88
:102F7000BF460EEA75F004A424031245CAEF70019F
:102F800009E9600302300BEB75F004A42400FFE5AF
:102F9000F0341EFE7D051243E0EB75F004A424011D
:102FA0001243D8EB75F004A42402FFE5F0341EFEB2
:102FB0007D461243E0EB75F004A424031243D8EBE2
:102FC0007010EB75F004A42440FFE5F0341EFE0DF4
:102FD0008036EB24FFFFE434FFFEEF7802C333CEEC
:102FE00033CED8F92440FFEE341EFE1245D0AA0796
:102FF0000AEAC394FE40027AFEEB75F004A4244072
:10300000FFE5F0341EFEAD021243E022C2067F014E
:103010001247491247245015759694E59620E7FB10
:103020005397BFE59620E7030230D980F612473D5B
:1030300040030230D91247D88F2B7871E6640360C1
:103040000A08E64402F6752CF9806DC37870E6959F
:103050002B18E69400500E7871760108E64402F6CB
:10306000752CF28053786C860308E6FA08E6F9AD11
:103070002B7F011241B47872E654FDF6AF2B7E002F
:10308000C37870E69FF618E69EF618EF26F618EE5F
:1030900036F67870E618466006E52B6440600678E0
:1030A000717601D206E4F52C759694E59620E7FB3F
:1030B0005397FEE59620E7FB7872E630E01B30067A
:1030C0000354FEF6E52BFB7A00786FE6F53208E64E
:1030D000F533AD2C7F0212207522604001370000CD
:1030E00000000000000000000000000000000000E0
:1030F00000000000000000000000000000000000D0
:1031000000000000000000000000000000000000BF
:10311000000000000000000000000000000060400F
:103120000178000000000000000000000000000026
:10313000000000000000000000000000000000008F
:10314000000000000000000000000000000000007F
:10315000000000000000000000000000000000006F
:1031600000004100170041000C0041000000410038
:1031700018FE010F004100018041013680410177B6
:10318000004100190042001A07D0C100C103C10468
:10319000C101C102010800010900010A00020D007D
:1031A00000020B000000752CFF7857E6FC08E6FDD6
:1031B000EC60030232697855E6541F6003023269FD
:1031C000785CE61846600302326918E61846600328
:1031D0000232697853E664047048ED4C60197876E1
:1031E000860308E6FA08E6F99000051229C3785824
:1031F00066700218E670727858E67851F67876862E
:103200000308E6FA08E6F99000051229C378586623
:10321000700218E67050D20612446A7F0612443AD1
:1032200080447853E6640670407857E6FE08E6FF6F
:103230004E60177876860308E6FA08E6F9900005EE
:103240001229C3B50723E4B5061F7858E67851F66E
:103250007858E61846700A7F0412443A1244B68041
:1032600005C20612446AE4F52CAF2C228F2D8B2E5A
:103270008A2F8930E52D601514601280007BFF7A5B
:103280004179637D8D7C021220187FFC22E52D6040
:103290000A7853E6640660037FF722E52D75F00790
:1032A000A4245EF9AF01EF2405F8E6FE640160098D
:1032B000EE7FFEB405027FFB22E5E6A2E192075312
:1032C000E6FDAA2FA930A807A62E08A60208A60187
:1032D000EF2403F8A63108A632EF2405F87602A2FF
:1032E00006E4335401FEEF2406F8E654FE4EF6E5FC
:1032F0002D14600B04702C7864E64404F68024D30B
:10330000E5329440E531940040047D408004AF32C2
:10331000AD077865860308E6FA08E6F9D2087F016A
:10332000123EB130070343E6027F0022E59620E714
:10333000FB8F96EB6024B401398A838982ED1D707E
:10334000067DFFEC60131CE59620E7FBE0F5970592
:1033500082E5827002058380E422E9F8ED1D7006A3
:103360007DFFEC600C1CE59620E7FBE6F5970880F6
:10337000EB228A838982ED1D70067DFFEC60141CB0
:10338000E59620E7FBE493F5970582E58270020558
:103390008380E322EB602E8A838982ED7004EC60E7
:1033A000231CE59620E7FB8F964396C0E59620E721
:1033B000FBE597F0DD04EC600B1C0582E58270EC08
:1033C000058380E822E9F8ED7004EC601C1CE596AA
:1033D00020E7FB8F964396C0E59620E7FBE597F242
:1033E000DD04EC60041C0880EF22C0E0C0F0C08364
:1033F000C082C0D075D000C000C001C002C003C0F0
:1034000004C005C006C0071247548F2712475F8FBC
:103410002812476A8F291247758F2AE52730E32E35
:103420001247DE1247E47864E6FF30E10618E664EE
:1034300003600AEF30E2097863E6B402034328012F
:103440007872E630E10818E6B40303432902E52761
:1034500030E203124302E52730E1031247D1E527AA
:1034600030E0031246E2E52830E1031235EFE529AA
:1034700030E10312300CE52830E003123697AF2A12
:10348000124749D007D006D005D004D003D002D0CF
:1034900001D000D0D0D082D083D0F0D0E032752CD3
:1034A000FF785CE66402184660030235447858E60B
:1034B000184660030235447855E6FF20E7030235DD
:1034C000447853E6FEC39404407AE4F516F517EF0A
:1034D000541F14601214601D24027059785AE618A3
:1034E000467052F52C804EC3785AE6940118E69443
:1034F000005042803D7859E6FC08E6FDAA04547F5E
:103500004A7006EEB4040280297853E6B40626ED2C
:10351000247F60122480701D7871E6B4060675164B
:1035200001751700800C786AE6B4060675160175F9
:103530001700E4F52CE52C700BFB7A0079167D0260
:10354000FC124575AF2C22752CFF785CE61846609E
:10355000030235EC7855E6541F24FE60030235EC77
:103560007858E6184660030235EC7859E6FE08E61E
:10357000547FFF4E700D7853E6C394044005E4F584
:103580002C8069C3EF9403EE940050607853E66496
:10359000067059F52C785AE6547FFF124749785A3D
:1035A000E630E70B759611759740E59620E7FB78B6
:1035B0005AE620E718759694E59620E7FB5397DFC7
:1035C000E59620E7FB439780E59620E7FB785AE6EF
:1035D000247F600F248070147871E66403600D7698
:1035E000018009786AE6640260027601AF2C227FCE
:1035F000011247491247175010759611E4F597E5E7
:103600009620E70302369680F6786AE66402600345
:103610000236967868E6FE08E6FFD39440EE940002
:1036200040047F4080008F2B7E00C37869E69FF6C0
:1036300018E69EF618EF26F618EE36F6786BE613C7
:1036400092067868E6FE08E6FFD39400EE94004008
:1036500024D3EF9440EE940040047D4080047869C8
:10366000E6FD7865860308E6FA08E6F9D2087F01E8
:10367000123EB18009786BE654FEF61876013006EA
:1036800015E52BFB7A007868E6F53208E6F533E4B9
:10369000FD7F0112207522E4FF1247491246FD40CA
:1036A000051246F0501D759611E4F597E59620E752
:1036B000FB759611759780E59620E7FB7863760198
:1036C000E408F6124731505F7864E6FF30E3028089
:1036D000537863E66401703E785DF6123F847F554F
:1036E000122AC7BFFD147855E6FFC41354037005B2
:1036F000123B438032124653802D7855E620E7274F
:103700007863E664036020785CE6184660197864A4
:10371000E64408F680117863E6B4030512390280A6
:10372000067864E64402F67863E6B4020812470AB3
:103730004003122E032275440175457C75460075C1
:1037400047AA90017AE0F548A3E0F549E548607F93
:10375000D3943F507AE5496076D394085071E4FFE2
:10376000EFC3954950250545E545AC447002054435
:1037700014F5828C83E0FE0547E547AC46700205F0
:103780004614F5828C83EEF00F80D5E4FFEFC395ED
:103790004850140547E547AC467002054614F582CB
:1037A0008C83E4F00F80E67E007FAA7C007D1EE51E
:1037B000492548F54F7B03123C523083FD9000179A
:1037C000E549F090000CE548F09000007401F0220B
:1037D0008B238A24892553E6FD122065E4FF74516A
:1037E0002FF8E4F60FBF2BF6AB23AA24A925122A43
:1037F0004A7873A60308A60208A601AB23AA24A947
:1038000025900003122A6A7876A60308A60208A665
:1038100001AB23AA24A925900006122A6A7879A66A
:103820000308A60208A601AB23AA24A92590000933
:103830001229C37852F653A98F43D7207596017584
:103840009708E59620E7FB75960B75970FE5962090
:10385000E7FB12478B7853760343E60275960175B2
:103860009701E59620E7FB7F0022C0E0C0F0C0830F
:10387000C082C0D075D000C000C001C002C003C06B
:1038800004C005C006C007E5F854F0FFF4440F5229
:10389000F8EF30E752E508602C300113850C828583
:1038A0000B83E5A3F0050CE50C7007050B80038581
:1038B000A326D5080D300305300002D2FA12201AD3
:1038C000800385080AE509601E30F91B3002138564
:1038D0000E82850D83E0F5A3050EE50E7007050D3C
:1038E000800375A3001509D007D006D005D004D0F9
:1038F00003D002D001D000D0D0D082D083D0F0D07D
:10390000E0327864E61392061247808F2BC3786208
:10391000E69F18E69400500E7863760108E64402AC
:10392000F6752CF2805A785E860308E6FA08E6F906
:10393000AD2BE4FF1241B4AF2B7E007860EF26F68A
:1039400018EE36F6C37862E69FFF18E69EFEF6088C
:10395000EFF6E4F52CEF4E701CE52B644060167515
:103960009611759748E59620E7FB7863760108E69F
:1039700054FEF6800B759611759740E59620E7FB8F
:10398000300615E52BFB7A007861E6F53208E6F59E
:1039900033AD2CE4FF122075228F448B458A468973
:1039A00047E544601624FE601280007BFF7A41796F
:1039B000637D1A7C011220187FFC22E544600A789E
:1039C00053E6640660037FF722E54475F007A424FC
:1039D0005EF9AF01EF2405F8E6FE64016009EE7FB1
:1039E000FEB405027FFB22E5E6A2E1920853E6FD64
:1039F000AA46A947A807A64508A60208A601EF24DB
:103A000003F8A64808A649EF2405F87603A207E4C0
:103A1000335401FEEF2406F8E654FE4EF654F7F652
:103A200030080343E6027F0022752CFF785CE6181D
:103A3000466003023AB67855E6541F24FE70777844
:103A400059E6FE08E6547FFF4E700D7853E6C394A6
:103A5000044005E4F52C805EC3EF9403EE9400501F
:103A6000557858E61846704E7853E664067047F568
:103A70002C785AE6547FFF124749785AE630E70B14
:103A8000759611759710E59620E7FB785AE620E7C2
:103A900010759694E59620E7FB439720E59620E77E
:103AA000FB785AE6247F600A2480700A78717606D3
:103AB0008004786A7606AF2C2275440175457C75C2
:103AC00046007547AA75488090017BE0F549E549B5
:103AD0006070D39408506BE4FFEFC39549502505FF
:103AE00045E545AC447002054414F5828C83E0FE44
:103AF0000547E547AC467002054614F5828C83EE17
:103B0000F00F80D5E4FFEFC3954850140547E54713
:103B1000AC467002054614F5828C83E4F00F80E613
:103B20007E007FAA7C007D1EE5492548F54F7B037A
:103B3000123C523083FD900017E549F090000CE5EF
:103B400048F022E4F52B7856E6B40C00506A903B1E
:103B500055F8282873023B79023B80023BB8023BB0
:103B600087023BB8023B8E023B95023BB8023B9C6E
:103B7000023BA3023BAA023BB112349E8F2B803B37
:103B80001235478F2B8034123A298F2B802D12400B
:103B90004B8F2B8026122CF38F2B801F12201E8F11
:103BA0002B80181231A68F2B80111242C48F2B80CC
:103BB0000A1244098F2B8003752BFFE4FF1247493B
:103BC000E52BB4FF03124653AF2B22AE07E4FB12E2
:103BD0004749300813A80674107E00088005C333D7
:103BE000CE33CED8F9FF8013AF0674207E00A8072D
:103BF000088005C333CE33CED8F9FFD3ED9FEC9EBA
:103C0000500343038030090343034030072043033C
:103C100020300803430304759611759740E59620FC
:103C2000E7FB7596128B97E59630E72580F9759638
:103C300014759780E59620E7FB7596158B97E596AA
:103C400020E7FB20080B759612E4F597E59620E730
:103C5000FB228E4A8F4BAF4FC207C2AEE5A120E7D1
:103C6000FB20040312200385A350C2FF300305305C
:103C70000002C2FAE54F605430F91EEF601BEB30D2
:103C8000E113854A83854B82E0F5A3054BE54B7034
:103C900007054A8003E4F5A31F30FF19C2FFEB308C
:103CA000E00E8D828C83E5A3F00DBD00010C800336
:103CB00085A350154F2003BC3000B9200709E5A1AA
:103CC00030E3B1D20780ADE5A120E3A83003053091
:103CD0000002D2FAAF4F2275440175457C9000175F
:103CE000E0241EF582E43400AF82F5468F47754824
:103CF000007549AA7D84E4FF0545E545AA447002A4
:103D0000054414F5828A83E0FE0549E549AA487016
:103D100002054814F5828A83EEF00FBF04DAE4FF4F
:103D20000545E545AA447002054414F5828A83E0FE
:103D3000FE0549E549AA487002054814F5828A83C0
:103D4000EEF00FBF04DA7E007FAA8D4F7B02E4FD08
:103D5000FC123C523083FD22024283E493A3F8E438
:103D600093A34003F68001F208DFF48029E493A3D3
:103D7000F85407240CC8C333C4540F4420C88340EC
:103D800004F456800146F6DFE4800B0102040810BB
:103D90002040809030DAE47E019360BCA3FF543F62
:103DA00030E509541FFEE493A360010ECF54C025F3
:103DB000E060A840B8E493A3FAE493A3F8E493A3E3
:103DC000C8C582C8CAC583CAF0A3C8C582C8CAC547
:103DD00083CADFE9DEE780BE12461190017BE05422
:103DE000FE1244F81245E290017BE0FF1244FFE42A
:103DF000900017F0C2071245AF90017DEFF0603FD1
:103E0000E4FDFC90017DE0FFFBC3ED9B7480F86C4A
:103E1000985031EF24FFFFE434FFFEEFB50508EEC4
:103E2000B50404D2078002C2071245AF747E2DF597
:103E30008274013CF583EFF00DBD00010C80C4D20B
:103E4000071245AF0246278F30E4F532E5306005B2
:103E5000C3940340127BFF7A4179637D4D7C00124D
:103E600020187532FC8041E5E6A2E1920753E6FD99
:103E7000E53075F007A4245EF98931E5312405F8B1
:103E8000E664016023E53024FE600A04700C7F01C3
:103E900012433F80057F01124373E5312405F87614
:103EA00001E5312406F8E4F630070343E602AF32B9
:103EB000228F338D348B358A368937E59620E7FBA0
:103EC000E5334420F596E5351460132403601A1495
:103ED0006020147026AD37AF3412467C801DAC369E
:103EE000AD37AF3412463D8012AD37AF3412469035
:103EF0008009AC36AD37AF341245FA30081CE533D3
:103F0000D394004015AF33124749759691E596203A
:103F1000E7FB439701E59620E7FB22AD0753E6FD5B
:103F200075960E759701E59620E7FB759691E596D7
:103F300020E7FBAF97EF30E50B759611759740E5DD
:103F40009620E7FBEF30E20B759611E4F597E596C6
:103F500020E7FBBD0303124109BD12031241FBBD63
:103F60001103122BE17B017A017937E50FFD7C000B
:103F70007F2112332C759611759701E59620E7FB8A
:103F800043E60222752B55A92B7A007B007D08E4BD
:103F9000FF1241B4759611759740E59620E7FBE551
:103FA0002B2402F8E6FC08E6FAECFFEAFEE52B24F7
:103FB00002F8A60608A607E52B2404F8E6FC08E6A6
:103FC000FAECFFEAFEE52B2404F8A60608A607E5AE
:103FD0002B2406F8E6FC08E6FAECFFEAFEE52B24C3
:103FE00006F8A60608A60722A3F0A3E538F0A3E585
:103FF00039F0E4A3F075440175457C7546007547BA
:10400000AA90017BE0FD6042D3943E503DE4FFEF77
:10401000C39D50250545E545AA447002054414F5A5
:10402000828A83E0FE0547E547AA467002054614EA
:10403000F5828A83EEF00F80D67E007FAA8D4F7BBB
:1040400002E4FDFC123C523083FD22752CFF7857B0
:10405000E6FE08E6FFC39480EE9400504D785CE6DF
:10406000184670467855E6541F703F785AE6184651
:1040700070387853E6B4030BEF4E60197F04124496
:104080003A80127853E6B4040F7858E61846700563
:104090007F0312443AE4F52CE52C700EF59678581F
:1040A000E64480F597E59620E7FBAF2C22900017B9
:1040B000E0241EF582E43400AF82F52D8F2E752F9B
:1040C000017530399001377403F090000CE09001D5
:1040D00038F0E4FF90000CE0FEEFC39E5025052E63
:1040E000E52EAC2D7002052D14F5828C83E0FD05C4
:1040F00030E530AA2F7002052F14F5828A83EDF087
:104100000F80D1EE2402F50F22900017E0241EF557
:1041100082E43400AF82F5228F237524017525399E
:104120009001377403F090000CE0900138F0E4FF48
:1041300090000CE0FEEFC39E50250523E523AC2242
:104140007002052214F5828C83E0FE0525E525AC7E
:10415000247002052414F5828C83EEF00F80D17553
:104160000F4022433A5C55736572735C74657374D7
:104170005C53696D706C69636974795374756469B3
:104180006F5C76335F776F726B73706163655C48E9
:1041900049445F5350495C6C69625C65666D385F89
:1041A0007573625C7372635C65666D385F757362AC
:1041B000642E63008F2D8D2E8B2F8A308931E52E52
:1041C000D394004035E59620E7FBE52D44E0F596D5
:1041D000E52F1460112403601824FE701DAD31AB6F
:1041E0002DAF2E024592AC30AD31AB2DAF2E024437
:1041F000D7AD31AB2DAF2E12455622752201752356
:1042000078752401752537E4FF0523E523AC22707A
:1042100002052214F5828C83E0FE0525E525AC24F9
:104220007002052414F5828C83EEF074782FF582E9
:10423000E43401F583E4F00FBF40CE750F40221245
:10424000461190017BE01244F890017AE06031E47D
:10425000FDFC90017AE024FEFFE434FFFEC3ED9FF5
:10426000EE6480F8EC6480985016747D2DF58274AD
:10427000013CF583E0FF1244FF0DBD00010C80D22C
:104280000246271243A7122F0AC297D296D2A090B5
:104290000000E0B4030A7F03123F1BE4900000F02B
:1042A000900000E0B4110A7F11123F1BE49000005F
:1042B000F0900000E0B412D77F12123F1BE4900090
:1042C00000F080CB7859E6FE08E67DFFC39401EE4E
:1042D0009400502B785CE66401184670227858E60A
:1042E0001846701B7855E6B481157853E6B4060F6E
:1042F0007BFF7A4879D07D017C00124575E4FDAFE3
:10430000052278637601786A760678717606759666
:104310000F75978FE59620E7FB759601759701E578
:104320009620E7FB75960B75970FE59620E7FBE562
:10433000C9A2E650047F0380027F0112443A221290
:104340004749759611759708E59620E7FB75969194
:10435000E59620E7FBE59720E3F37596117597083E
:10436000E59620E7FB759691E59620E7FBE597201B
:10437000E3F322124749759614759710E59620E7E6
:10438000FB759694E59620E7FBE59720E4F3759698
:1043900014759710E59620E7FB759694E59620E74F
:1043A000FBE59720E4F32285BF221247AA1247E9D2
:1043B0001220141247BC1247ED1247C31247F112E4
:1043C00047F51247961246A41247A01246B4124768
:1043D000CA1247B38522BF22FFE5F0341EFEE4FD7A
:1043E000A2AF9205C2AF75FFA075EF028F828E83D8
:1043F00075B7A575B7F1438F0175FFA075EF02ED95
:10440000F0538FFEA20592AF227FFF785AE6FE7826
:1044100058E6FDEEC3940150207853E6B4061A78AE
:104420005CE618467013ED70107855E6541FFEBE1A
:104430000107C20612446AE4FF228F2D7853E6F585
:104440002EC394054009E52D940550031244B6E5AA
:104450002DB405047854A62E7853A62DE52E652D8F
:104460006007AD2DAF2E12451822300608786A7607
:104470000178717601D207D208C2097D407C007FA5
:1044800001123BCBC207D208C2097D407C007F01EC
:10449000023BCBAD07ED4480F596E59620E7FBAFF8
:1044A00097EF7F00FEED144480F596E59620E7FB3C
:1044B000AD97ED420722E5E6A2E1920653E6FD75CF
:1044C0002F01AF2F123E47052FE52FC3940340F273
:1044D00030060343E602228D828C831FEF600BE5DA
:1044E0009620E7FBE597F0A380F1E59620E7FBEB4C
:1044F0004420F596E597F022FF1244FFA3E0FF8FDA
:10450000C2C2C0E4FFFE20C00B0FBF00010EBE03FD
:10451000F5BFE8F2A2C1B3228F2FBD0619D297C210
:1045200096D2A07B017A017978754800754940D20E
:10453000077F021239992290017A7401F0A3F0A347
:104540007405F0123736900017E0241EF582E4342B
:1045500000F583E0FF22A8051FEF600BE59620E73A
:10456000FBE597F20880F1E59620E7FBEB4420F5A8
:1045700096E597F2227863E6B40116785EA6030802
:10458000A60208A60108A60408A605087602E40803
:10459000F622A8051FEF600AE59620E7FBA697081C
:1045A00080F2E59620E7FBEB4420F596A69722C221
:1045B000C0E4FFFE20C00B0FBF00010EBE03F5BF1D
:1045C000E8F2A207B392C1AFC222FFE5F0341EFEAB
:1045D000A2AF9207C2AF8F828E83E493FFA20792AD
:1045E000AF22D2C5C2C0E4FFFE20C00B0FBF000146
:1045F0000EBE03F5BFE8F2C2C5228D828C83AE07E2
:104600001FEE600CE59620E7FBE493F597A380EEA0
:1046100022D2C5E4FFFE20C00B0FBF00010EBE0377
:10462000F5BFE8F2C2C522D2C4C2C0E4FFFE30C466
:104630000B0FBF00010EBE03F5BFE8F2228D828C86
:1046400083AE071FEE600BE59620E7FBE0F597A32E
:1046500080EF22E4FF12474978637605759611755D
:104660009760E59620E7FB22AF051244FFE4FFFECA
:104670000FBF00010EEF64324E70F522A805AE07A1
:104680001FEE600BE59620E7FBE6F5970880EF222A
:10469000A805AE071FEE600BE59620E7FBE2F59755
:1046A0000880EF2275B903758902758CE3E4F58AF9
:1046B0004388102275BC0875BA1F75BB0B43E88090
:1046C00075D10822E4FFFE0FBF00010EBE01F8BF46
:1046D000F4F522E490017AF0A304F0A37406F0024A
:1046E0003FF57853E6C3940240057F0512443A2211
:1046F000759691E59620E7FBE597A2E422759691E1
:10470000E59620E7FBE597A2E222759691E59620D3
:10471000E7FBE597A2E122759691E59620E7FBE598
:1047200097A2E522759694E59620E7FBE597A2E629
:1047300022759691E59620E7FBE5971322759694EE
:10474000E59620E7FBE597132275960E8F97E59681
:1047500020E7FB22759686E59620E7FBAF9722754A
:104760009682E59620E7FBAF9722759684E5962022
:10477000E7FBAF972275968EE59620E7FBAF972271
:10478000759696E59620E7FBAF972278637601430E
:10479000D78043D7402275A20F43A14043F80C2293
:1047A000E490001DF090001CF022E4F5BF53D9BF47
:1047B000F5D9227BFF7A4879C60237D075A0FB7500
:1047C000F3802275E24075E1062275E60275A8C005
:1047D000227854E6FF02443A7F17124493227F0D59
:1047E000124493228E2B8F2C2275DE0822E4F5F2E0
:1047F0002243B2032275A903220600FF0901A10189
:104800008503953F750826FF001500090191029563
:104810003F26FF00150009018102C01201000200BD
:10482000000040350801FE4600010203010902298B
:1048300000010104803209040000020300000509A0
:104840002111010001222200070581034000020717
:1048500005010340000A04030904011A0353696CAB
:1048600069636F6E204C6162730001240348494400
:1048700020746F20535049204465766963650001B8
:1048800022033031323334353637383941424344EC
:10489000454600011403436F6E66696720233100AB
:1048A000012203437573746F6D20496E74657266DF
:1048B00061636500FF4856FF485AFF486AFF487F1A
:1048C000FF4893FF48A0FF481BFF482DFF48B40650
:0248D0000000E6
:017DF0000092
:027DF20000038C
:087DF80001200005004655AA18
:00000001FF
